:100000000C943ACD0C9459CD0C9459CD0C9459CDF7
:100010000C9459CD0C9459CD0C9459CD0C9459CDC8
:100020000C9459CD0C9459CD0C9459CD0C9459CDB8
:100030000C9459CD0C9459CD0C9459CD0C9459CDA8
:100040000C9459CD0C9459CD0C9459CD0C9459CD98
:100050000C9459CD0C9459CD0C9459CD0C9459CD88
:100060000C9459CD0C9459CD0C9459CD0C9459CD78
:100070000C9459CD0C9459CD0C9459CD0C9459CD68
:100080000C9459CD0C9459CD0C9459CD020091008B
:10009000B4000001000000000000000000000000AB
:1000A0000000000000000000000000000000000050
:1000B0000000000000000000000000000000000040
:1000C0000000000000000000000000000000000030
:1000D0000000000000000000000000000000000020
:1000E0000000000000000000000000000000000010
:1000F0000000000000000000000000000000000000
:1001000000000000000000000000000000000000EF
:1001100000000000000000000000000000000000DF
:1001200000000000000000000000000000000000CF
:1001300000000000000000000000000000000000BF
:10014000000000000100020202020202020202029A
:10015000020202020202020202020202020202027F
:10016000020202020202020202020202020202026F
:10017000020202020202020202020202020202025F
:10018000020202020202020202020202020202024F
:10019000020202020202020202020202020202023F
:1001A000020202020202020202020202020202022F
:1001B000020202020202020202020202020202021F
:1001C000020202020202020202020202020202020F
:1001D00002020202020202020202020202020202FF
:1001E00002020202020202020202020202020202EF
:1001F00002020202020202020201030202020202DF
:1002000002020202020202020202020202020202CE
:1002100002020202020202020202020202020202BE
:1002200002020202020202020202020202020202AE
:10023000020202020202020202020202020202029E
:10024000020202020202020202020202020202028E
:10025000020202020202020202020202020202027E
:10026000020202020202020202020202020202026E
:10027000020202020202020202020202020202025E
:10028000020202020202020202020202020202024E
:10029000020202020202020202020202020202023E
:1002A000020202020202020202020202020400022E
:1002B00002050606060606060606060606060606E3
:1002C00006060606060606060606060606060606CE
:1002D00006060606060606060606060606060606BE
:1002E00006060606060606060606060606060606AE
:1002F000060606060606060606060606060606069E
:10030000060606060606060606060606060606068D
:10031000060606060606060606060606060606067D
:10032000060606060606060606060606060606066D
:10033000060606060606060606060606060606065D
:10034000060606060606060606060606060606064D
:100350000606060606060606060606060606050242
:10036000020000020206070707070707070707073B
:10037000070707070707070707070707070707070D
:1003800007070707070707070707070707070707FD
:1003900007070707070707070707070707070707ED
:1003A00007070707070707070707070707070707DD
:1003B00007070707070707070707070707070707CD
:1003C00007070707070707070707070707070707BD
:1003D00007070707070707070707070707070707AD
:1003E000070707070707070707070707070707079D
:1003F000070707070707070707070707070707078D
:10040000070707070707070707070707070707077C
:100410000707060202000002020607070707070790
:10042000070707070707070707070707070707075C
:10043000070707070707070707070707070707074C
:10044000070707070707070707070707070707073C
:10045000070707070707070707070707070707072C
:10046000070707070707070707070707070707071C
:10047000070707070707070707070707070707070C
:1004800007070707070707070707070707070707FC
:1004900007070707070707070707070707070707EC
:1004A00007070707070707070707070707070707DC
:1004B00007070707070707070707070707070707CC
:1004C00007070707070706020200000202060707E0
:1004D00007070707070707070707070707070707AC
:1004E000070707070707070707070707070707079C
:1004F000070707070707070707070707070707078C
:10050000070707070707070707070707070707077B
:10051000070707070707070707070707070707076B
:10052000070707070707070707070707070707075B
:10053000070707070707070707070707070707074B
:10054000070707070707070707070707070707073B
:10055000070707070707070707070707070707072B
:10056000070707070707070707070707070707071B
:100570000707070707070707070706020200000229
:1005800002060707070808080808080808080808F6
:1005900008080808080808080808080808080808DB
:1005A00008080808080808080808080808080808CB
:1005B00008080808080808080808080808080808BB
:1005C00008080808080808080808080808080808AB
:1005D000080808080808080808080808080808089B
:1005E000080808080808080808080808080808088B
:1005F000080808080808080808080808080808087B
:10060000080808080808080808080808080808086A
:10061000080808080808080808080808080808085A
:100620000808080808080808080808070707060255
:10063000020000020206070707090A0A0A0A0A0A54
:100640000A0A0A0A0A0A0A0A0A0A0A0A0A0A0A0A0A
:100650000A0A0A0A0A0A0A0A0A0A0A0A0A0A0A0AFA
:100660000A0A0A0A0A0A0A0A0A0A0A0A0A0A0A0AEA
:100670000A0A0A0A0A0A0A0A0A0A0A0A0A0A0A0ADA
:100680000A0A0A0A0A0A0A0A0A0A0A0A0A0A0A0ACA
:100690000A0A0A0A0A0A0A0A0A0A0A0A0A0A0A0ABA
:1006A0000A0A0A0A0A0A0A0A0A0A0A0A0A0A0A0AAA
:1006B0000A0A0A0A0A0A0A0A0A0A0A0A0A0A0A0A9A
:1006C0000A0A0A0A0A0A0A0A0A0A0A0A0A0A0A0A8A
:1006D0000A0A0A0A0A0A0A0A0A0A0A0A0A0A09077E
:1006E00007070602020000020206070707090A0AB6
:1006F0000A0A0A0A0A0A0A0A0A0A0A0A0A0A0A0A5A
:100700000A0A0A0A0A0A0A0A0A0A0A0A0A0A0A0A49
:100710000A0A0A0A0A0A0A0A0A0A0A0A0A0A0A0A39
:100720000A0A0A0A0A0A0A0A0A0A0A0A0A0A0A0A29
:100730000A0A0A0A0A0A0A0A0A0A0A0A0A0A0A0A19
:100740000A0A0A0A0A0A0A0A0A0A0A0A0A0A0A0A09
:100750000A0A0A0A0A0A0A0A0A0A0A0A0A0A0A0AF9
:100760000A0A0A0A0A0A0A0A0A0A0A0A0A0A0A0AE9
:100770000A0A0A0A0A0A0A0A0A0A0A0A0A0A0A0AD9
:100780000A0A0A0A0A0A0A0A0A0A0A0A0A0A0A0AC9
:100790000A0A090707070602020000020206070705
:1007A00007090A0A0A0A0A0A0A0A0A0A0A0A0A0AAD
:1007B0000A0A0A0A0A0A0A0A0A0A0A0A0A0A0A0A99
:1007C0000A0A0A0A0A0A0A0A0A0A0A0A0A0A0A0A89
:1007D0000A0A0A0A0A0A0A0A0A0A0A0A0A0A0A0A79
:1007E0000A0A0A0A0A0A0A0A0A0A0A0A0A0A0A0A69
:1007F0000A0A0A0A0A0A0A0A0A0A0A0A0A0A0A0A59
:100800000A0A0A0A0A0A0A0A0A0A0A0A0A0A0A0A48
:100810000A0A0A0A0A0A0A0A0A0A0A0A0A0A0A0A38
:100820000A0A0A0A0A0A0A0A0A0A0A0A0A0A0A0A28
:100830000A0A0A0A0A0A0A0A0A0A0A0A0A0A0A0A18
:100840000A0A0A0A0A0A0907070706020200000242
:100850000206070707090A0A0A0A0A0A0A0A0A0A0E
:100860000A0A0A0A0A0A0A0A0A0A0A0A0A0A0A0AE8
:100870000A0A0A0A0A0A0A0A0A0A0A0A0A0A0A0AD8
:100880000A0A0A0A0A0A0A0A0A0A0A0A0A0A0A0AC8
:100890000A0A0A0A0A0A0A0A0A0A0A0A0A0A0A0AB8
:1008A0000A0A0A0A0A0A0A0A0A0A0A0A0A0A0A0AA8
:1008B0000A0A0A0A0A0A0A0A0A0A0A0A0A0A0A0A98
:1008C0000A0A0A0A0A0A0A0A0A0A0A0A0A0A0A0A88
:1008D0000A0A0A0A0A0A0A0A0A0A0A0A0A0A0A0A78
:1008E0000A0A0A0A0A0A0A0A0A0A0A0A0A0A0A0A68
:1008F0000A0A0A0A0A0A0A0A0A0A0907070706026E
:10090000020000020206070707090A0A0A0A0A0A81
:100910000A0A0A0A0A0A0A0A0A0A0A0A0A0A0A0A37
:100920000A0A0A0A0A0A0A0A0A0A0A0A0A0A0A0A27
:100930000A0A0A0A0A0A0A0A0A0A0A0A0A0A0A0A17
:100940000A0A0A0A0A0A0A0A0A0A0A0A0A0A0A0A07
:100950000A0A0A0A0A0A0A0A0A0A0A0A0A0A0A0AF7
:100960000A0A0A0A0A0A0A0A0A0A0A0A0A0A0A0AE7
:100970000A0A0A0A0A0A0A0A0A0A0A0A0A0A0A0AD7
:100980000A0A0A0A0A0A0A0A0A0A0A0A0A0A0A0AC7
:100990000A0A0A0A0A0A0A0A0A0A0A0A0A0A0A0AB7
:1009A0000A0A0A0A0A0A0A0A0A0A0A0A0A0A0907AB
:1009B00007070602020000020206070707090A0AE3
:1009C0000A0A0A0A0A0A0A0A0A0A0A0A0A0A0A0A87
:1009D0000A0A0A0A0A0A0A0A0A0A0A0A0A0A0A0A77
:1009E0000A0A0A0A0A0A0A0A0A0A0A0A0A0A0A0A67
:1009F0000A0A0A0A0A0A0A0A0A0A0A0A0A0A0A0A57
:100A00000A0A0A0A0A0A0A0A0A0A0A0A0A0A0A0A46
:100A10000A0A0A0A0A0A0A0A0A0A0A0A0A0A0A0A36
:100A20000A0A0A0A0A0A0A0A0A0A0A0A0A0A0A0A26
:100A30000A0A0A0A0A0A0A0A0A0A0A0A0A0A0A0A16
:100A40000A0A0A0A0A0A0A0A0A0A0A0A0A0A0A0A06
:100A50000A0A0A0A0A0A0A0A0A0A0A0A0A0A0A0AF6
:100A60000A0A090707070602020000020206070732
:100A700007090A0A0A0A0A0A0A0A0A0A0A0A0A0ADA
:100A80000A0A0A0A0A0A0A0A0A0A0A0A0A0A0A0AC6
:100A90000A0A0A0A0A0A0A0A0A0A0A0A0A0A0A0AB6
:100AA0000A0A0A0A0A0A0A0A0A0A0A0A0A0A0A0AA6
:100AB0000A0A0A0A0A0A0A0A0A0A0A0A0A0A0A0A96
:100AC0000A0A0A0A0A0A0A0A0A0A0A0A0A0A0A0A86
:100AD0000A0A0A0A0A0A0A0A0A0A0A0A0A0A0A0A76
:100AE0000A0A0A0A0A0A0A0A0A0A0A0A0A0A0A0A66
:100AF0000A0A0A0A0A0A0A0A0A0A0A0A0A0A0A0A56
:100B00000A0A0A0A0A0A0A0A0A0A0A0A0A0A0A0A45
:100B10000A0A0A0A0A0A090707070602020000026F
:100B20000206070707090A0A0A0A0A0A0A0A0A0A3B
:100B30000A0A0A0A0A0A0A0A0A0A0A0A0A0A0A0A15
:100B40000A0A0A0A0A0A0A0A0A0A0A0A0A0A0A0A05
:100B50000A0A0A0A0A0A0A0A0A0A0A0A0A0A0A0AF5
:100B60000A0A0A0A0A0A0A0A0A0A0A0A0A0A0A0AE5
:100B70000A0A0A0A0A0A0A0A0A0A0A0A0A0A0A0AD5
:100B80000A0A0A0A0A0A0A0A0A0A0A0A0A0A0A0AC5
:100B90000A0A0A0A0A0A0A0A0A0A0A0A0A0A0A0AB5
:100BA0000A0A0A0A0A0A0A0A0A0A0A0A0A0A0A0AA5
:100BB0000A0A0A0A0A0A0A0A0A0A0A0A0A0A0A0A95
:100BC0000A0A0A0A0A0A0A0A0A0A0907070706029B
:100BD000020000020206070707090A0A0A0A0A0AAF
:100BE0000A0A0A0A0A0A0A0A0A0A0A0A0A0A0A0A65
:100BF0000A0A0A0A0A0A0A0A0A0A0A0A0A0A0A0A55
:100C00000A0A0A0A0A0A0A0A0A0A0A0A0A0A0A0A44
:100C10000A0A0A0A0A0A0A0A0A0A0A0A0A0A0A0A34
:100C20000A0A0A0A0A0A0A0A0A0A0A0A0A0A0A0A24
:100C30000A0A0A0A0A0A0A0A0A0A0A0A0A0A0A0A14
:100C40000A0A0A0A0A0A0A0A0A0A0A0A0A0A0A0A04
:100C50000A0A0A0A0A0A0A0A0A0A0A0A0A0A0A0AF4
:100C60000A0A0A0A0A0A0A0A0A0A0A0A0A0A0A0AE4
:100C70000A0A0A0A0A0A0A0A0A0A0A0A0A0A0907D8
:100C800007070602020000020206070707090A0A10
:100C90000A0A0A0A0A0A0A0A0A0A0A0A0A0A0A0AB4
:100CA0000A0A0A0A0A0A0A0A0A0A0A0A0A0A0A0AA4
:100CB0000A0A0A0A0A0A0A0A0A0A0A0A0A0A0A0A94
:100CC0000A0A0A0A0A0A0A0A0A0A0A0A0A0A0A0A84
:100CD0000A0A0A0A0A0A0A0A0A0A0A0A0A0A0A0A74
:100CE0000A0A0A0A0A0A0A0A0A0A0A0A0A0A0A0A64
:100CF0000A0A0A0A0A0A0A0A0A0A0A0A0A0A0A0A54
:100D00000A0A0A0A0A0A0A0A0A0A0A0A0A0A0A0A43
:100D10000A0A0A0A0A0A0A0A0A0A0A0A0A0A0A0A33
:100D20000A0A0A0A0A0A0A0A0A0A0A0A0A0A0A0A23
:100D30000A0A09070707060202000002020607075F
:100D400007090A0A0A0A0A0A0A0A0A0A0A0A0A0A07
:100D50000A0A0A0A0A0A0A0A0A0A0A0A0A0A0A0AF3
:100D60000A0A0A0A0A0A0A0A0A0A0A0A0A0A0A0AE3
:100D70000A0A0A0A0A0A0A0A0A0A0A0A0A0A0A0AD3
:100D80000A0A0A0A0A0A0A0A0A0A0A0A0A0A0A0AC3
:100D90000A0A0A0A0A0A0A0A0A0A0A0A0A0A0A0AB3
:100DA0000A0A0A0A0A0A0A0A0A0A0A0A0A0A0A0AA3
:100DB0000A0A0A0A0A0A0A0A0A0A0A0A0A0A0A0A93
:100DC0000A0A0A0A0A0A0A0A0A0A0A0A0A0A0A0A83
:100DD0000A0A0A0A0A0A0A0A0A0A0A0A0A0A0A0A73
:100DE0000A0A0A0A0A0A090707070602020000029D
:100DF0000206070707090A0A0A0A0A0A0A0A0A0A69
:100E00000A0A0A0A0A0A0A0A0A0A0A0A0A0A0A0A42
:100E10000A0A0A0A0A0A0A0A0A0A0A0A0A0A0A0A32
:100E20000A0A0A0A0A0A0A0A0A0A0A0A0A0A0A0A22
:100E30000A0A0A0A0A0A0A0A0A0A0A0A0A0A0A0A12
:100E40000A0A0A0A0A0A0A0A0A0A0A0A0A0A0A0A02
:100E50000A0A0A0A0A0A0A0A0A0A0A0A0A0A0A0AF2
:100E60000A0A0A0A0A0A0A0A0A0A0A0A0A0A0A0AE2
:100E70000A0A0A0A0A0A0A0A0A0A0A0A0A0A0A0AD2
:100E80000A0A0A0A0A0A0A0A0A0A0A0A0A0A0A0AC2
:100E90000A0A0A0A0A0A0A0A0A0A090707070602C8
:100EA000020000020206070707090A0A0A0A0A0ADC
:100EB0000A0A0A0A0A0A0A0A0A0A0A0A0A0A0A0A92
:100EC0000A0A0A0A0A0A0A0A0A0A0A0A0A0A0A0A82
:100ED0000A0A0A0A0A0A0A0A0A0A0A0A0A0A0A0A72
:100EE0000A0A0A0A0A0A0A0A0A0A0A0A0A0A0A0A62
:100EF0000A0A0A0A0A0A0A0A0A0A0A0A0A0A0A0A52
:100F00000A0A0A0A0A0A0A0A0A0A0A0A0A0A0A0A41
:100F10000A0A0A0A0A0A0A0A0A0A0A0A0A0A0A0A31
:100F20000A0A0A0A0A0A0A0A0A0A0A0A0A0A0A0A21
:100F30000A0A0A0A0A0A0A0A0A0A0A0A0A0A0A0A11
:100F40000A0A0A0A0A0A0A0A0A0A0A0A0A0A090705
:100F500007070602020000020206070707090A0A3D
:100F60000A0A0A0A0A0A0A0A0A0A0A0A0A0A0A0AE1
:100F70000A0A0A0A0A0A0A0A0A0A0A0A0A0A0A0AD1
:100F80000A0A0A0A0A0A0A0A0A0A0A0A0A0A0A0AC1
:100F90000A0A0A0A0A0A0A0A0A0A0A0A0A0A0A0AB1
:100FA0000A0A0A0A0A0A0A0A0A0A0A0A0A0A0A0AA1
:100FB0000A0A0A0A0A0A0A0A0A0A0A0A0A0A0A0A91
:100FC0000A0A0A0A0A0A0A0A0A0A0A0A0A0A0A0A81
:100FD0000A0A0A0A0A0A0A0A0A0A0A0A0A0A0A0A71
:100FE0000A0A0A0A0A0A0A0A0A0A0A0A0A0A0A0A61
:100FF0000A0A0A0A0A0A0A0A0A0A0A0A0A0A0A0A51
:101000000A0A09070707060202000002020607078C
:1010100007090A0A0A0A0A0A0A0A0A0A0A0A0A0A34
:101020000A0A0A0A0A0A0A0A0A0A0A0A0A0A0A0A20
:101030000A0A0A0A0A0A0A0A0A0A0A0A0A0A0A0A10
:101040000A0A0A0A0A0A0A0A0A0A0A0A0A0A0A0A00
:101050000A0A0A0A0A0A0A0A0A0A0A0A0A0A0A0AF0
:101060000A0A0A0A0A0A0A0A0A0A0A0A0A0A0A0AE0
:101070000A0A0A0A0A0A0A0A0A0A0A0A0A0A0A0AD0
:101080000A0A0A0A0A0A0A0A0A0A0A0A0A0A0A0AC0
:101090000A0A0A0A0A0A0A0A0A0A0A0A0A0A0A0AB0
:1010A0000A0A0A0A0A0A0A0A0A0A0A0A0A0A0A0AA0
:1010B0000A0A0A0A0A0A09070707060202000002CA
:1010C0000206070707090A0A0A0A0A0A0A0A0A0A96
:1010D0000A0A0A0A0A0A0A0A0A0A0A0A0A0A0A0A70
:1010E0000A0A0A0A0A0A0A0A0A0A0A0B0C0C0C0C57
:1010F0000C0C0A0A0A0A0A0A0A0A0A0A0A0A0A0A4C
:101100000A0A0A0A0A0A0A0A0A0A0A0B0C0C0C0C36
:101110000C0C0A0A0A0A0A0A0A0A0A0A0A0A0A0A2B
:101120000A0A0A0A0A0A0A0A0A0A0A0A0A0A0A0A1F
:101130000A0A0A0A0A0A0A0A0A0A0A0A0A0A0A0A0F
:101140000A0A0A0A0A090D0D0D0D0D0D0E0A0A0AEA
:101150000A0A0A0A0A0A0A0A0A0A0A0A0A0A0A0AEF
:101160000A0A0A0A0A0A0A0A0A0A090707070602F5
:10117000020000020206070707090A0A0A0A0A0A09
:101180000A0A0A0A0A0A0A0A0A0A0A0A0A0A0A0ABF
:101190000A0A0A0A0A0A0A0A0A0A0A0A0A0A0A0DAC
:1011A0000D0D0D0D0D0D0C0A0A0A0A0A0A0A0A0A8B
:1011B0000A0A0A0A0A0A0A0A0A0A0A0A0A0A0A0E8B
:1011C0000D0D0D0D0D0D0C0A0A0A0A0A0A0A0A0A6B
:1011D0000A0A0A0A0A0A0A0A090D0D0D0D0D0D0E5A
:1011E0000A0A0A0A0A0A0A0A0A0A0A0A0A0A0A0A5F
:1011F0000A0A0A0A0A0A0A0A0A0A0C0F0D0D0D0D3C
:10120000100A0A0A0A0A0A0A0A0A0A0A0A0A0A0A38
:101210000A0A0A0A0A0A0A0A0A0A0A0A0A0A090732
:1012200007070602020000020206070707090A0A6A
:101230000A0A0A0A0A0A0A0A0A0A0A0A0A0A0A0A0E
:101240000A0A0A0A0A0A0A0A0A0A0A0A0A0A0A0AFE
:101250000A0A0A0B0E0D0D0D0D0D0C0A0A0A0A0AD8
:101260000A0A0A0A0A0A0A11121212121212130A9E
:101270000A0A0A0A140D0D0D0D0D0C0A0A0A0A0AB3
:101280000A0A0A0A0A0A0A0A0A0A0A0A0A110D0DB1
:101290000D0D0D150A0A0A0A0A0A0A0A0A0A0A0A9A
:1012A0000A0A0A0A0A0A0A0A0A0A0A0A0A0A0A0A9E
:1012B0000D0D0D0D110A0A0A0A0A0A0A0A0A0A0A7B
:1012C0000A0A0A0A0A0A0A0A0A0A0A0A0A0A0A0A7E
:1012D0000A0A0907070706020200000202060707BA
:1012E00007090A0A0A0A0A0A0A0A0A0A0A0A0A0A62
:1012F0000A0A0A0A0A0A0A0A0A0A0A0A0A0A0A0B4D
:101300000C0C0C0C0C090A0A0A160D0D0D0D0C0A1A
:101310000A0A0A0A0A0A0A0A0A0A0A110D0D0D0D1A
:101320000D0D150A0A0A0A0A0A130D0D0D0D0C0AF5
:101330000A0A0A0A0A0A0A0A0A0A0A0A0A0A0A0A0D
:101340000A0A090D0D0D0D150A0A0A0A0A0A0A0AE7
:101350000A0A0A0A0A0A0A0A0A0A0A0A160D0D0DD8
:101360000D0D0D0D0D0D0D0D0D0D0D0D0D0D120AAB
:101370000A0A0A0A0A0A0A0A0A0A0A0A0A0A0A0ACD
:101380000A0A0A0A0A0A09070707060202000002F7
:101390000206070707090A0A0A0A0A0A0A0A0A0AC3
:1013A0000A0A0A0A0A0A0A0A0A0B1212121212126C
:1013B0000A0A0A100D0D0D0D0D150A0A0A0C0D0D65
:1013C0000D0D0C0A0A0A0A0A0A0A0A0A0A0A0A0A75
:1013D0000A0F0D0D0D0D140A0A0A0A0A0A0C0D0D4A
:1013E0000D0D0C0A0A0A0A0A0A0A0A0A0A0A0A0A55
:1013F0000A0A0A0A0A0A0A0D0D0D0D150A0A0A0A36
:101400000A0A0A0A0A0A0A0A0A0A0A0A0A0A0A0A3C
:1014100009170D0D0D0D0D0D0D0D0D0D0D0D0D0DF6
:101420000D0D110A0A0A0A0A0A0A0A0A0A0A0A0A0F
:101430000A0A0A0A0A0A0A0A0A0A09070707060222
:10144000020000020206070707090A0A0A0A0A0A36
:101450000A0A0A0A0A0A0A0A0A0A0A0A0A0B0F0DE3
:101460000D0D0D0D0A0A0A0A140D0D0D0D150A0AAF
:101470000A0C0D0D0D0D0C0A0A0A0A0A0A0A0A0ABC
:101480000A0A0A0A0A150D0D0D0D0A0A0A0A0A0AA5
:101490000A0C0D0D0D0D0C0A0A0A0A0A0A0A0A0A9C
:1014A0000A090D0D0D0D0D0D0D0D0D0D0D0D0D0D73
:1014B0000D0D0D0D0D0D0D0F090A0A0A0A0A0A0A73
:1014C0000A0A0A0A0A0A14151515151515150D0D1F
:1014D0000D0D0D0D0D110A0A0A0A0A0A0A0A0A0A56
:1014E0000A0A0A0A0A0A0A0A0A0A0A0A0A0A090760
:1014F00007070602020000020206070707090A0A98
:101500000A0A0A0A0A0A0A0A0A0A0A0A0A0A0A0A3B
:101510000A0A0A170D0D0D0D0A0A0A0A0A160D0D00
:101520000D150A0A0A0C0D0D0D0D0C0A0A0A0A0AFD
:101530000A0A0A0A0A0A0A0A0A0D0D0D0D120A0AF7
:101540000A0A0A0A0A0C0D0D0D0D0C0A0A0A0A0AEB
:101550000A0A0A0A0A0A160D0D0D0D0D0D0D0D0DC4
:101560000D0D0D0D0D0D0D0D0D0D0D0D120A0A0AAF
:101570000A0A0A0A0A0A0A0A0A0A0A0A0A0A0A0ACB
:101580000A160D0D0D0D0D17090A0A0A0A0A0A0A94
:101590000A0A0A0A0A0A0A0A0A0A0A0A0A0A0A0AAB
:1015A0000A0A0907070706020200000202060707E7
:1015B00007090A0A0A0A0A0A0A0A0A0A0A0A0A0A8F
:1015C0000A0A0A0A0A0A0A0C0D0D0D0D0A0A0A0A6D
:1015D0000A120D0D0D150A0A0A0C0D0D0D0D0C0A3F
:1015E0000A0A0A0A0A0A0A0A0A0A0A0A110D0D0D4B
:1015F0000D0A0A0A0A0A0A0A0A0C0D0D0D0D140C2E
:101600000C0C0A0A0A0A0A0A0A0A0A0C1615151507
:101610000F0D0D0D0D0D0D0D0D0D17151515150ECD
:101620000A0A0A0A0A0A0A0A0A0A0A0A0A0A0A0A1A
:101630000A0A0A09170D0D0D0D0D120A0A0A0A0AE7
:101640000A0A0A0A0A0A0A0A0A0A0A0A0A0A0A0AFA
:101650000A0A0A0A0A0A0907070706020200000224
:101660000206070707090A0A0A0A0A0A0A0A0A0AF0
:101670000A0A0A0A0A0A0A0A0A0A0A0C0D0D0D0DBC
:101680000A0A0A0A0A120D0D0D150A0A0A0C0D0D96
:101690000D0D0C0A0A0A0A0A0A0A0A0A0A0A0A0AA2
:1016A0000F0D0D0D120A0A0A0A0A0A0A0A0C0D0D7C
:1016B0000D0D0D0D0D0D100A0A0A0A0A0A0A0A0A72
:1016C0000A0A0A120D0D0D0D0D0D0D0D0D0D0D0C4F
:1016D0000A0A0A0A0A0A0A0A0A0A0A0A0A0A0A0A6A
:1016E0000A0A0A0A0A0A100D0D0D0D0D0D0F12122D
:1016F00013110C0A0A0A0A0A0A0A0A0A0A0A0A0A38
:101700000A0A0A0A0A0A0A0A0A0A0907070706024F
:10171000020000020206070707090A0A0A0A0A0A63
:101720000A0A0A0A0A0A0A0A0A0A0A0A0A0A0A0C17
:101730000D0D0D0D0C0C0C0C0C160D0D0D150A0AD3
:101740000A0C0D0D0D0D0C0A0A0A0A0A0A0A0A0AE9
:101750000A0A0A110D0D0D0D0D120A0A0A0A0A0ACB
:101760000A0C0D0D0D0D0D0D0D0D160A0A0A0A0AB3
:101770000A0A0A0A0A0A160D0D0D0D0E130C110F96
:101780000D0D0D0D0C0A0A0A0A0A0A0A0A0A0A0AAB
:101790000A0A0A0A0A0A0A0A120D0D0D0D0D0E1088
:1017A0000F0D0D0D0D0D0D100A0A0A0A0A0A0A0A7C
:1017B0000A0A0A0A0A0A0A0A0A0A0A0A0A0A09078D
:1017C00007070602020000020206070707090A0AC5
:1017D0000A0A0A0A0A0A0A0A0A0A0A0A0A0A0A0A69
:1017E0000A0A0A0C0D0D0D0D0D0D0D0D0D0D0D0D33
:1017F0000D150A0A0A0C0D0D0D0D0C0A0A0A0A0A2B
:101800000A0A0A0A0A0A0A0D0D0D0D160D0D0D120F
:101810000A0A0A0A0A0C0D0D0D0D140C0C0C0A0A0A
:101820000A0A0A0A0A0A0A0A0A130D0D0D0D160AF7
:101830000A0A0A0A0F0D0D0D0D0A0A0A0A0A0A0AF7
:101840000A0A0A0A0A0A0A0A0A0A120F0D0D0D0FDD
:10185000100B0A0A0A110F0D0D0D0D0D160A0A0ABA
:101860000A0A0A0A0A0A0A0A0A0A0A0A0A0A0A0AD8
:101870000A0A090707070602020000020206070714
:1018800007090A0A0A0A0A0A0A0A0A0A0A0A0A0ABC
:101890000A0A0A0A0A0A0A0C0D0D0D0D0D0D0D0D8E
:1018A0000D0D0D0D0D150A0A0A0C0D0D0D0D0C0A6E
:1018B0000A0A0A0A0A0A0A0A0A0A150D0D0D090A75
:1018C000170D0D0D0D0E0A0A0A0C0D0D0D0D0C0A4B
:1018D0000A0A0A0A0A0A0A0A0A0A0A0A0A0F0D0D5D
:1018E0000D0D0A0A0A0A0A0A110D0D0D0D120A0A37
:1018F0000A0A0A0A0A0A0A0A0A0A0A0C160D0D0D31
:101900000F16130A0A0A0A0A0A0A0A0C0E0D0D0D0E
:101910000D0C0A0A0A0A0A0A0A0A0A0A0A0A0A0A22
:101920000A0A0A0A0A0A0907070706020200000251
:101930000206070707090A0A0A0A0A0A0A0A0A0A1D
:101940000A0A0A0A0A0A0A0A0A0A0A0C0D0D0D0DE9
:101950000C0C0C0C0C160D0D0D150A0A0A0C0D0DB5
:101960000D0D0C0A0A0A0A0A0A0A0A0A0A100D0DC3
:101970000D090A0A0A170D0D0D0D110A0A0C0D0D9D
:101980000D0D0C0A0A0A0A0A0A0A0A0A0A0A0A0AAF
:101990000B0D0D0D0D150A0A0A0A0A0A0A0D0D0D86
:1019A0000D170A0A0A0A0A0A0A0A0A0A0A0A170D77
:1019B0000D1512090A0A0A0A0A0A0A0A0A0A0A0A72
:1019C0000A0B100D0D140A0A0A0A0A0A0A0A0A0A60
:1019D0000A0A0A0A0A0A0A0A0A0A0907070706027D
:1019E000020000020206070707090A0A0A0A0A0A91
:1019F0000A0A0A0A0A0A0A0A0A0A0A0A0A0A0A0C45
:101A00000D0D0D0D0A0A0A0A0A120D0D0D150A0A0E
:101A10000A0C0D0D0D0D0C0A0A0A0A0A0A0A0A0A16
:101A2000110D0D0D090A0A0A0A0B0D0D0D0D0E0AF6
:101A30000A0C0D0D0D0D0C0A0A0A0A0A0A0A0A0AF6
:101A40000A0A0A0A0C0D0D0D0D150A0A0A0A0A0ADD
:101A50000A0D0D0D0D0D0A0A0A0A0A0A0A0A0A0AD7
:101A60000A0A09090A0A0A0A0A0A0A0A0A0A0A0AD8
:101A70000A0A0A0A0A0A0A0A090A0A0A0A0A0A0AC7
:101A80000A0A0A0A0A0A0A0A0A0A0A0A0A0A0907BA
:101A900007070602020000020206070707090A0AF2
:101AA0000A0A0A0A0A0A0A0A0A0A0A0A0A0A0A0A96
:101AB0000A0A0A0C0D0D0D0D0A0A0A0A0A120D0D6A
:101AC0000D150A0A0A0C0D0D0D0D0C0A0A0A0A0A58
:101AD0000A0A0A0C0D0D170A0A0A0A0A0A0A090D4F
:101AE0000D0D0D0A0A0C0D0D0D0D0C0A0A0A0A0A3D
:101AF0000A0A0A0A0A0A0A0A090D0D0D0D150A0A30
:101B00000A0A0A0A0A0D0D0D0D170A0A0A0A0A0A1C
:101B10000A0A0A0A151515151515151515151515A1
:101B2000151515151515151515151515151515106A
:101B30000A0A0A0A0A0A0A0A0A0A0A0A0A0A0A0A05
:101B40000A0A090707070602020000020206070741
:101B500007090A0A0A0A0A0A0A0A0A0A0A0A0A0AE9
:101B60000A0A0A0A0A0A0A0C0D0D0D0D0A0A0A0AC7
:101B70000A120D0D0D150A0A0A0C0D0D0D0D0C0A99
:101B80000A0A0A0A0A0A090D0D120A0A0A0A0A0AA8
:101B90000A0A0A090D0D0D090A0C0D0D0D0D090A91
:101BA0000A0A0A0A0A0A0A0A0A0A0A0A0A0F0D0D8A
:101BB0000D0D0A0A0A0A0A0A110D0D0D0D100A0A66
:101BC0000A0A0A0A0A0A0A0A160D0D0D0D0D0D0D54
:101BD0000D0D0D0D0D0D0D0D0D0D0D0D0D0D0D0D35
:101BE0000D0D0D0D0A0A0A0A0A0A0A0A0A0A0A0A49
:101BF0000A0A0A0A0A0A090707070602020000027F
:101C00000206070707090A0A0A0A0A0A0A0A0A0A4A
:101C10000A0A0A0A0A0A0A0A0A0A0A0C0D0D0D0D16
:101C20000A0A0A0A0A120D0D0D150A0A0A0C0D0DF0
:101C30000D0D0C0A0A0A0A0A0A0A0D0E0C0A0A0AF3
:101C40000A0A0A0A0A0A0A0A0B150D0A0A0C0D0DDD
:101C50000D0D0A0A0A0A0A0A0A0A0A0A0A0A0A0ADE
:101C60000A110D0D0D0D120A0A0A0A0A0F0D0D0DAB
:101C70000D0B0A0A0A0A0A0A0A0A0A0A0A110E15AA
:101C8000151515151515150F0D0D0D0D0F15151530
:101C900015151515151515120A0A0A0A0A0A0A0A4F
:101CA0000A0A0A0A0A0A0A0A0A0A090707070602AA
:101CB000020000020206070707090A0A0A0A0A0ABE
:101CC0000A0A0A0A0A0A0A0A0A0A0A0A0A0A0A0C72
:101CD0000D0D0D0D0C0C0C0C0C160D0D0D150A0A2E
:101CE0000A0C0D0D0D0D0C0A0A0A0A0A0A0A0A0A44
:101CF0000A0A0A0A0A0A0A0A0A0A0A0A0A09090A46
:101D00000A090D0D0D100A0A0A0A0A0A0A0A0A0A25
:101D10000A0A0A0A0A0A160D0D0D0D16090A1317EA
:101D20000D0D0D0D110A0A0A0A0A0A0A0A0A0A0A00
:101D30000A0A0A0A0A0A0A0A0A0A0A120D0D0D0DEF
:101D4000120A0A0A0A0A0A0A0A0A0A0A0A0A0A0AEB
:101D50000A0A0A0A0A0A0A0A0A0A0A0A0A0A0907E7
:101D600007070602020000020206070707090A0A1F
:101D70000A0A0A0A0A0A0A0A0A0A0A0A0A0A0A0AC3
:101D80000A0A0A0C0D0D0D0D0D0D0D0D0D0D0D0D8D
:101D90000D150A0A0A0C0D0D0D0D0C0A0A0A0A0A85
:101DA0000A0A0A0A0A0A0A0A0A0A0A0A0A0A111581
:101DB0000D0D0D0D0E110A0A0A0A0A0A0A0A0A0A6C
:101DC0000A0A0A0A0A0A0A0A0A0A0A160D0D0D0D5B
:101DD0000D0D0D0D0D0D0D110A0A0A0A0A0A0A0A47
:101DE0000A0A0A0A0A0A0A0A0A0A0A0A0A0A0A124B
:101DF0000D0D0D0D120A0A0A0A0A0A0A0A0A0A0A2F
:101E00000A0A0A0A0A0A0A0A0A0A0A0A0A0A0A0A32
:101E10000A0A09070707060202000002020607076E
:101E200007090A0A0A0A0A0A0A0A0A0A0A0A0A0A16
:101E30000A0A0A0A0A0A0A0C0D0D0D0D0D0D0D0DE8
:101E40000D0D0D0D0D150A0A0A0C0D0D0D0D0C0AC8
:101E50000A0A0A0A0A0A0A0A0A0A0A0A0A0A0A0AE2
:101E600009170D0D0D0D0D0D0D0D150A0A0A0A0AA3
:101E70000A0A0A0A0A0A0A0A0A0A0A0A0A0A0A0AC2
:101E80000C150D0D0D0D0D0D0D160B0A0A0A0A0A83
:101E90000A0A0A0A0A0A0A0A0A0A0A12151515156E
:101EA0001515150F0D0D0D0D0F151515151515091A
:101EB0000A0A0A0A0A0A0A0A0A0A0A0A0A0A0A0A82
:101EC0000A0A0A0A0A0A09070707060202000002AC
:101ED0000206070707090A0A0A0A0A0A0A0A0A0A78
:101EE0000A0A0A0A0A0A0A0A0A0A0A0C0D0D0D0D44
:101EF0001212121212150D0D0D160A0A0A0C0D0DF2
:101F00000D0D0C0A0A0A0A0A0A0A0A0A0A0A0A0A29
:101F10000A0A0A0B0D0D0D0D1512120F0D0D0D0DE8
:101F20000A0A0A0A0A0A0A0A0A0A0A0A0A0A0A0A11
:101F30000A0A0A0A0A0A0C0D0D0D0D170A0A0A0AE6
:101F40000A0A0A0A0A0A0A0A0A0A0A0A0A0A0A09F2
:101F50000F0D0D0D0D0D0D0D0D0D0D0D0D0D0D0DAF
:101F60000D0D0D0E0A0A0A0A0A0A0A0A0A0A0A0AC4
:101F70000A0A0A0A0A0A0A0A0A0A090707070602D7
:101F8000020000020206070707090A0A0A0A0A0AEB
:101F90000A0A0A0A0A0A0A0A0A0A0A0A0A0A0A0C9F
:101FA0000D0D0D100A0A0A0A0A1115150E0B0A0A60
:101FB0000A0C0D0D0D0D0C0A0A0A0A0A0A0A0A0A71
:101FC0000A0A0A0A0A0A0A170D0D0D160A0A0A0A4F
:101FD0000E0D0D0D150A0A0A0A0A0A0A0A0A0A0A49
:101FE0000A0A0A0A0A0A0A0A0A0A0C0D0D0D0D1538
:101FF0000A0A0A0A0A0A0A0A0A0A0A0A0A0A0A0A41
:102000000A0A0A0A0A1112121212121212121212D9
:1020100012120F0D0D0D0D110A0A0A0A0A0A0A0AF8
:102020000A0A0A0A0A0A0A0A0A0A0A0A0A0A090714
:1020300007070602020000020206070707090A0A4C
:102040000A0A0A0A0A0A0A0A0A0A0A0A0A0A0A0AF0
:102050000A0A0A0A0C0C090A0A0A0A0A0A0A0A0ADD
:102060000A0A0A0A0A0C0D0D0D0D0C0A0A0A0A0AC0
:102070000A0A0A0A0A0A0A0A0A0A130D0D0D0D0AAB
:102080000A0A0A0A0B0D0D0D0D0C0A0A0A0A0A0AA1
:102090000A0A0A0A0A0A0A0A0A0A0A0A0A0A0C0D9B
:1020A0000D0D0D150A0A0A0A0A0A0A0A0A0A0A0A7C
:1020B0000A0A0A0A0A0A0A0A0A0A0A0A0A0A0A0A80
:1020C0000A0A0A0A0A0A150D0D0D0F0A0A0A0A0A57
:1020D0000A0A0A0A0A0A0A0A0A0A0A0A0A0A0A0A60
:1020E0000A0A09070707060202000002020607079C
:1020F00007090A0A0A0A0A0A0A0A0A0A0A0A0A0A44
:102100000A0A0A0A0A0A0A0A0A0A0A0A0A0A0A0A2F
:102110000A0A0A0A0A0A0A0A0A0C0D0D0D0D0C0A0F
:102120000A0A0A0A0A0A0A0A0A0A0A0A0A0A160D00
:102130000D0D150A0A0A0A0A0A170D0D0D120A0AD0
:102140000A0A0A0A0A0A0A0A0A0A0A0A0A0A0A0AEF
:102150000A0A0C0D0D0D0D150A0A0A0A0A0A0A0AC6
:102160000A0A0A0A0A0A0A0A0A0A0A0C12121212AD
:10217000121212121212121212120D0D0D0D0E0A5F
:102180000A0A0A0A0A0A0A0A0A0A0A0A0A0A0A0AAF
:102190000A0A0A0A0A0A09070707060202000002D9
:1021A0000206070707090A0A0A0A0A0A0A0A0A0AA5
:1021B0000A0A0A0A0A0A0A0A0A0A0A0A0A0A0A0A7F
:1021C0000A0A0A0A0A0A0A0A0A0A0A0A0A0C0D0D67
:1021D0000D0D0C0A0A0A0A0A0A0A0A0A0A0A0A0A57
:1021E0000A0A150D0D0D150A0A0A0A0A0A150D0D1F
:1021F0000D150A0A0A0A0A0A0A0A0A121212121209
:10220000121212121212160D0D0D0D0F12121212C1
:102210001212121212120C0A0A0A0A0A0A0A0A13E3
:102220000D0D0D0D0D0D0D0D0D0D0D0D0D0D0D0DDE
:102230000D0D0D150A0A0A0A0A0A0A0A0A0A0A0AEA
:102240000A0A0A0A0A0A0A0A0A0A09070707060204
:10225000020000020206070707090A0A0A0A0A0A18
:102260000A0A0A0A0A0A0A0A0A0A0A0A0A0A0A0ACE
:102270000A0A0A0A0A0A0A0A0A0A0A0A0A0A0A0ABE
:102280000A0C0D0D0D0D0C0A0A0A0A0A0A0A0A0A9E
:102290000A0A0A0A0A0A0E0D0D0D150A0A0A0A0A86
:1022A0000A150D0D0D100A0A0A0A0A0A0A0A0A1767
:1022B0000D0D0D0D0D0D0D0D0D0D0D0D0D0D0D0D4E
:1022C0000D0D0D0D0D0D0D0D0D0D0D0B0A0A0A0A4C
:1022D0000A0A0A0A0A160D0D0D0D0F15151515150A
:1022E00015151515151515100A0A0A0A0A0A0A0AFB
:1022F0000A0A0A0A0A0A0A0A0A0A0A0A0A0A090742
:1023000007070602020000020206070707090A0A79
:102310000A0A0A0A0A0A0A0A0A0A0A0A0A0A0A0A1D
:102320000A0A0A0A0A0A0A0A0A0A0A0A0A0A0A0A0D
:102330000A0A0A0A0A0C0D0D0D0D0C0A0A0A0A0AED
:102340000A0A0A0A0A0A0A0A0A0A110D0D0D0D0ADA
:102350000A0A0A0A0A0D0D0D0D110A0A0A0A0A0ACA
:102360000A0A0A0A160D0D0D0D0D0D0D0D0D0D0DA0
:102370000D0D0D0D0D0D0D0D0D0D0D0D0D0D170A86
:102380000A0A0A0A0A0A0A0A0A0C0D0D0D0D120A97
:102390000A0A0A0A0A0A0A0A0A0A0A0A0A0A0A0A9D
:1023A0000A0A0A0A0A0A0A0A0A0A0A0A0A0A0A0A8D
:1023B0000A0A0907070706020200000202060707C9
:1023C00007090A0A0A0A0A0A0A0A0A0A0A0A0A0A71
:1023D0000A0A0A0A0A0A0A0A0A0A0A0A0A0A0A0A5D
:1023E0000A0A0A0A0A0A0A0A0A0C0D0D0D0D0C0A3D
:1023F0000A0A0A0A0A0A0A0A0A0A0A0A0A0A0A0D3A
:102400000D0D0D120A0A0A0A160D0D0D0F0A0A0A01
:102410000A0A0A0A0A0A0A0A0A0A0C0C0C0C0C0C10
:102420000C0C0C0C0C0C0C0C0C0C0C0C0C0C0C0CEC
:102430000C0C0A0A0A0A0A0A0A0A0A0A0A0C0D0DF0
:102440000D0D100A0A0A0A0A0A0A0A0A0A0A0A0AE0
:102450000A0A0A0A0A0A0A0A0A0A0A0A0A0A0A0ADC
:102460000A0A0A0A0A0A0907070706020200000206
:102470000206070707090A0A0A0A0A0A0A0A0A0AD2
:102480000A0A0A0A0A0A0A0A0A0A0A0A0A0A0A0AAC
:102490000A0A0A0A0A0A0A0A0A0A0A0A0A0C0D0D94
:1024A0000D0D0B0A0A0A0A0A0A0A0A0A0A0A0A0A85
:1024B0000A0A0A0C0D0D0D0D1613130E0D0D0D0D40
:1024C000090A0A0A0A0A0A0A0A0A0A0A0A0A0A0A6D
:1024D0000A0A0A0A0A0A0A0A0A0A0A0A0A0A0A0A5C
:1024E0000A0A0A0A0A0A0A0A0A0A0A0A0A0A0A0A4C
:1024F0000A0B0D0D0D0D0D0D0D0D0D0D0D0D0D0D11
:102500000D0D0D0D0E0A0A0A0A0A0A0A0A0A0A0A1B
:102510000A0A0A0A0A0A0A0A0A0A09070707060231
:10252000020000020206070707090A0A0A0A0A0A45
:102530000A0A0A0A0A0A0A0A0A0A0A0A0A0A0A0AFB
:102540000A0A0A0A0A0A0A0A0A0A0A0A0A0A0A0AEB
:102550000A0C0D0D0D0D0A0A0A0A0A0A0A0A0A0ACD
:102560000A0A0A0A0A0A0A0A110D0D0D0D0D0D0DAF
:102570000D0D0D090A0A0A0A0A0A0A0A0A0A0A0AB3
:102580000A0A0A0A0A0A0A0A0A0A0A0A0A0A0A0AAB
:102590000A0A0A0A0A0A0A0A0A0A0A0A0A0A0A0A9B
:1025A0000A0A0A0A0A0A110D0D0D0D0D0D0D0D0D69
:1025B0000D0D0D0D0D0D0D0D170A0A0A0A0A0A0A56
:1025C0000A0A0A0A0A0A0A0A0A0A0A0A0A0A09076F
:1025D00007070602020000020206070707090A0AA7
:1025E0000A0A0A0A0A0A0A0A0A0A0A0A0A0A0A0A4B
:1025F0000A0A0A0A0A0A0A0A0A0A0A0A0A0A0A0A3B
:102600000A0A0A0A0A0C0D0D0D110A0A0A0A0A0A18
:102610000A0A0A0A0A0A0A0A0A0A0A0A0A0B160D0A
:102620000D0D0D0D0D100A0A0A0A0A0A0A0A0A0AF5
:102630000A0A0A0A0A0A0A0A0A0A0A0A0A0A0A0AFA
:102640000A0A0A0A0A0A0A0A0A0A0A0A0A0A0A0AEA
:102650000A0A0A0A0A0A0A0A0A0A0A0A0C0C0C0CD2
:102660000C0C0C0C0C0C0C0C0C0C0C0C0A0A0A0AB2
:102670000A0A0A0A0A0A0A0A0A0A0A0A0A0A0A0ABA
:102680000A0A0907070706020200000202060707F6
:1026900007090A0A0A0A0A0A0A0A0A0A0A0A0A0A9E
:1026A0000A0A0A0A0A0A0A0A0A0A0A0A0A0A0A0A8A
:1026B0000A0A0A0A0A0A0A0A0A0A0C0C0A0A0A0A76
:1026C0000A0A0A0A0A0A0A0A0A0A0A0A0A0A0A0A6A
:1026D0000A0A0A0A0C0C0C0C0A0A0A0A0A0A0A0A52
:1026E0000A0A0A0A0A0A0A0A0A0A0A0A0A0A0A0A4A
:1026F0000A0A0A0A0A0A0A0A0A0A0A0A0A0A0A0A3A
:102700000A0A0A0A0A0A0A0A0A0A0A0A0A0A0A0A29
:102710000A0A0A0A0A0A0A0A0A0A0A0A0A0A0A0A19
:102720000A0A0A0A0A0A0A0A0A0A0A0A0A0A0A0A09
:102730000A0A0A0A0A0A0907070706020200000233
:102740000206070707090A0A0A0A0A0A0A0A0A0AFF
:102750000A0A0A0A0A0A0A0A0A0A0A0A0A0A0A0AD9
:102760000A0A0A0A0A0A0A0A0A0A0A0A0A0A0A0AC9
:102770000A0A0A0A0A0A0A0A0A0A0A0A0A0A0A0AB9
:102780000A0A0A0A0A0A0A0A0A0A0A0A0A0A0A0AA9
:102790000A0A0A0A0A0A0A0A0A0A0A0A0A0A0A0A99
:1027A0000A0A0A0A0A0A0A0A0A0A0A0A0A0A0A0A89
:1027B0000A0A0A0A0A0A0A0A0A0A0A0A0A0A0A0A79
:1027C0000A0A0A0A0A0A0A0A0A0A0A0A0A0A0A0A69
:1027D0000A0A0A0A0A0A0A0A0A0A0A0A0A0A0A0A59
:1027E0000A0A0A0A0A0A0A0A0A0A0907070706025F
:1027F000020000020206070707090A0A0A0A0A0A73
:102800000A0A0A0A0A0A0A0A0A0A0A0A0A0A0A0A28
:102810000A0A0A0A0A0A0A0A0A0A0A0A0A0A0A0A18
:102820000A0A0A0A0A0A0A0A0A0A0A0A0A0A0A0A08
:102830000A0A0A0A0A0A0A0A0A0A0A0A0A0A0A0AF8
:102840000A0A0A0A0A0A0A0A0A0A0A0A0A0A0A0AE8
:102850000A0A0A0A0A0A0A0A0A0A0A0A0A0A0A0AD8
:102860000A0A0A0A0A0A0A0A0A0A0A0A0A0A0A0AC8
:102870000A0A0A0A0A0A0A0A0A0A0A0A0A0A0A0AB8
:102880000A0A0A0A0A0A0A0A0A0A0A0A0A0A0A0AA8
:102890000A0A0A0A0A0A0A0A0A0A0A0A0A0A09079C
:1028A00007070602020000020206070707090A0AD4
:1028B0000A0A0A0A0A0A0A0A0A0A0A0A0A0A0A0A78
:1028C0000A0A0A0A0A0A0A0A0A0A0A0A0A0A0A0A68
:1028D0000A0A0A0A0A0A0A0A0A0A0A0A0A0A0A0A58
:1028E0000A0A0A0A0A0A0A0A0A0A0A0A0A0A0A0A48
:1028F0000A0A0A0A0A0A0A0A0A0A0A0A0A0A0A0A38
:102900000A0A0A0A0A0A0A0A0A0A0A0A0A0A0A0A27
:102910000A0A0A0A0A0A0A0A0A0A0A0A0A0A0A0A17
:102920000A0A0A0A0A0A0A0A0A0A0A0A0A0A0A0A07
:102930000A0A0A0A0A0A0A0A0A0A0A0A0A0A0A0AF7
:102940000A0A0A0A0A0A0A0A0A0A0A0A0A0A0A0AE7
:102950000A0A090707070602020000020206070723
:1029600007090A0A0A0A0A0A0A0A0A0A0A0A0A0ACB
:102970000A0A0A0A0A0A0A0A0A0A0A0A0A0A0A0AB7
:102980000A0A0A0A0A0A0A0A0A0A0A0A0A0A0A0AA7
:102990000A0A0A0A0A0A0A0A0A0A0A0A0A0A0A0A97
:1029A0000A0A0A0A0A0A0A0A0A0A0A0A0A0A0A0A87
:1029B0000A0A0A0A0A0A0A0A0A0A0A0A0A0A0A0A77
:1029C0000A0A0A0A0A0A0A0A0A0A0A0A0A0A0A0A67
:1029D0000A0A0A0A0A0A0A0A0A0A0A0A0A0A0A0A57
:1029E0000A0A0A0A0A0A0A0A0A0A0A0A0A0A0A0A47
:1029F0000A0A0A0A0A0A0A0A0A0A0A0A0A0A0A0A37
:102A00000A0A0A0A0A0A0907070706020200000260
:102A10000206070707090A0A0A0A0A0A0A0A0A0A2C
:102A20000A0A0A0A0A0A0A0A0A0A0A0A0A0A0A0A06
:102A30000A0A0A0A0A0A0A0A0A0A0A0A0A0A0A0AF6
:102A40000A0A0A0A0A0A0A0A0A0A0A0A0A0A0A0AE6
:102A50000A0A0A0A0A0A0A0A0A0A0A0A0A0A0A0AD6
:102A60000A0A0A0A0A0A0A0A0A0A0A0A0A0A0A0AC6
:102A70000A0A0A0A0A0A0A0A0A0A0A0A0A0A0A0AB6
:102A80000A0A0A0A0A0A0A0A0A0A0A0A0A0A0A0AA6
:102A90000A0A0A0A0A0A0A0A0A0A0A0A0A0A0A0A96
:102AA0000A0A0A0A0A0A0A0A0A0A0A0A0A0A0A0A86
:102AB0000A0A0A0A0A0A0A0A0A0A0907070706028C
:102AC000020000020206070707090A0A0A0A0A0AA0
:102AD0000A0A0A0A0A0A0A0A0A0A0A0A0A0A0A0A56
:102AE0000A0A0A0A0A0A0A0A0A0A0A0A0A0A0A0A46
:102AF0000A0A0A0A0A0A0A0A0A0A0A0A0A0A0A0A36
:102B00000A0A0A0A0A0A0A0A0A0A0A0A0A0A0A0A25
:102B10000A0A0A0A0A0A0A0A0A0A0A0A0A0A0A0A15
:102B20000A0A0A0A0A0A0A0A0A0A0A0A0A0A0A0A05
:102B30000A0A0A0A0A0A0A0A0A0A0A0A0A0A0A0AF5
:102B40000A0A0A0A0A0A0A0A0A0A0A0A0A0A0A0AE5
:102B50000A0A0A0A0A0A0A0A0A0A0A0A0A0A0A0AD5
:102B60000A0A0A0A0A0A0A0A0A0A0A0A0A0A0907C9
:102B700007070602020000020206070707090A0A01
:102B80000A0A0A0A0A0A0A0A0A0A0A0A0A0A0A0AA5
:102B90000A0A0A0A0A0A0A0A0A0A0A0A0A0A0A0A95
:102BA0000A0A0A0A0A0A0A0A0A0A0A0A0A0A0A0A85
:102BB0000A0A0A0A0A0A0A0A0A0A0A0A0A0A0A0A75
:102BC0000A0A0A0A0A0A0A0A0A0A0A0A0A0A0A0A65
:102BD0000A0A0A0A0A0A0A0A0A0A0A0A0A0A0A0A55
:102BE0000A0A0A0A0A0A0A0A0A0A0A0A0A0A0A0A45
:102BF0000A0A0A0A0A0A0A0A0A0A0A0A0A0A0A0A35
:102C00000A0A0A0A0A0A0A0A0A0A0A0A0A0A0A0A24
:102C10000A0A0A0A0A0A0A0A0A0A0A0A0A0A0A0A14
:102C20000A0A090707070602020000020206070750
:102C300007090A0A0A0A0A0A0A0A0A0A0A0A0A0AF8
:102C40000A0A0A0A0A0A0A0A0A0A0A0A0A0A0A0AE4
:102C50000A0A0A0A0A0A0A0A0A0A0A0A0A0A0A0AD4
:102C60000A0A0A0A0A0A0A0A0A0A0A0A0A0A0A0AC4
:102C70000A0A0A0A0A0A0A0A0A0A0A0A0A0A0A0AB4
:102C80000A0A0A0A0A0A0A0A0A0A0A0A0A0A0A0AA4
:102C90000A0A0A0A0A0A0A0A0A0A0A0A0A0A0A0A94
:102CA0000A0A0A0A0A0A0A0A0A0A0A0A0A0A0A0A84
:102CB0000A0A0A0A0A0A0A0A0A0A0A0A0A0A0A0A74
:102CC0000A0A0A0A0A0A0A0A0A0A0A0A0A0A0A0A64
:102CD0000A0A0A0A0A0A090707070602020000028E
:102CE0000206070707090A0A0A0A0A0A0A0A0A0A5A
:102CF0000A0A0A0A0A0A0A0A0A0A0A0A0A0A0A0A34
:102D00000A0A0A0A0A0A0A0A0A0A0A0A0A0A0A0A23
:102D10000A0A0A0A0A0A0A0A0A0A0A0A0A0A0A0A13
:102D20000A0A0A0A0A0A0A0A0A0A0A0A0A0A0A0A03
:102D30000A0A0A0A0A0A0A0A0A0A0A0A0A0A0A0AF3
:102D40000A0A0A0A0A0A0A0A0A0A0A0A0A0A0A0AE3
:102D50000A0A0A0A0A0A0A0A0A0A0A0A0A0A0A0AD3
:102D60000A0A0A0A0A0A0A0A0A0A0A0A0A0A0A0AC3
:102D70000A0A0A0A0A0A0A0A0A0A0A0A0A0A0A0AB3
:102D80000A0A0A0A0A0A0A0A0A0A090707070602B9
:102D9000020000020206070707090A0A0A0A0A0ACD
:102DA0000A0A0A0A0A0A0A0A0A0A0A0A0A0A0A0A83
:102DB0000A0A0A0A0A0A0A0A0A0A0A0A0A0A0A0A73
:102DC0000A0A0A0A0A0A0A0A0A0A0A0A0A0A0A0A63
:102DD0000A0A0A0A0A0A0A0A0A0A0A0A0A0A0A0A53
:102DE0000A0A0A0A0A0A0A0A0A0A0A0A0A0A0A0A43
:102DF0000A0A0A0A0A0A0A0A0A0A0A0A0A0A0A0A33
:102E00000A0A0A0A0A0A0A0A0A0A0A0A0A0A0A0A22
:102E10000A0A0A0A0A0A0A0A0A0A0A0A0A0A0A0A12
:102E20000A0A0A0A0A0A0A0A0A0A0A0A0A0A0A0A02
:102E30000A0A0A0A0A0A0A0A0A0A0A0A0A0A0907F6
:102E400007070602020000020206070707090A0A2E
:102E50000A0A0A0A0A0A0A0A0A0A0A0A0A0A0A0AD2
:102E60000A0A0A0A0A0A0A0A0A0A0A0A0A0A0A0AC2
:102E70000A0A0A0A0A0A0A0A0A0A0A0A0A0A0A0AB2
:102E80000A0A0A0A0A0A0A0A0A0A0A0A0A0A0A0AA2
:102E90000A0A0A0A0A0A0A0A0A0A0A0A0A0A0A0A92
:102EA0000A0A0A0A0A0A0A0A0A0A0A0A0A0A0A0A82
:102EB0000A0A0A0A0A0A0A0A0A0A0A0A0A0A0A0A72
:102EC0000A0A0A0A0A0A0A0A0A0A0A0A0A0A0A0A62
:102ED0000A0A0A0A0A0A0A0A0A0A0A0A0A0A0A0A52
:102EE0000A0A0A0A0A0A0A0A0A0A0A0A0A0A0A0A42
:102EF0000A0A09070707060202000002020607077E
:102F000007090A0A0A0A0A0A0A0A0A0A0A0A0A0A25
:102F10000A0A0A0A0A0A0A0A0A0A0A0A0A0A0A0A11
:102F20000A0A0A0A0A0A0A0A0A0A0A0A0A0A0A0A01
:102F30000A0A0A0A0A0A0A0A0A0A0A0A0A0A0A0AF1
:102F40000A0A0A0A0A0A0A0A0A0A0A0A0A0A0A0AE1
:102F50000A0A0A0A0A0A0A0A0A0A0A0A0A0A0A0AD1
:102F60000A0A0A0A0A0A0A0A0A0A0A0A0A0A0A0AC1
:102F70000A0A0A0A0A0A0A0A0A0A0A0A0A0A0A0AB1
:102F80000A0A0A0A0A0A0A0A0A0A0A0A0A0A0A0AA1
:102F90000A0A0A0A0A0A0A0A0A0A0A0A0A0A0A0A91
:102FA0000A0A0A0A0A0A09070707060202000002BB
:102FB0000206070707090A0A0A0A0A0A0A0A0A0A87
:102FC0000A0A0A0A0A0A0A0A0A0A0A0A0A0A0A0A61
:102FD0000A0A0A0A0A0A0A0A0A0A0A0A0A0A0A0A51
:102FE0000A0A0A0A0A0A0A0A0A0A0A0A0A0A0A0A41
:102FF0000A0A0A0A0A0A0A0A0A0A0A0A0A0A0A0A31
:103000000A0A0A0A0A0A0A0A0A0A0A0A0A0A0A0A20
:103010000A0A0A0A0A0A0A0A0A0A0A0A0A0A0A0A10
:103020000A0A0A0A0A0A0A0A0A0A0A0A0A0A0A0A00
:103030000A0A0A0A0A0A0A0A0A0A0A0A0A0A0A0AF0
:103040000A0A0A0A0A0A0A0A0A0A0A0A0A0A0A0AE0
:103050000A0A0A0A0A0A0A0A0A0A090707070602E6
:10306000020000020206070707090A0A0A0A0A0AFA
:103070000A0A0A0A0A0A0A0A0A0A0A0A0A0A0A0AB0
:103080000A0A0A0A0A0A0A0A0A0A0A0A0A0A0A0AA0
:103090000A0A0A0A0A0A0A0A0A0A0A0A0A0A0A0A90
:1030A0000A0A0A0A0A0A0A0A0A0A0A0A0A0A0A0A80
:1030B0000A0A0A0A0A0A0A0A0A0A0A0A0A0A0A0A70
:1030C0000A0A0A0A0A0A0A0A0A0A0A0A0A0A0A0A60
:1030D0000A0A0A0A0A0A0A0A0A0A0A0A0A0A0A0A50
:1030E0000A0A0A0A0A0A0A0A0A0A0A0A0A0A0A0A40
:1030F0000A0A0A0A0A0A0A0A0A0A0A0A0A0A0A0A30
:103100000A0A0A0A0A0A0A0A0A0A0A0A0A0A090723
:1031100007070602020000020206070707090A0A5B
:103120000A0A0A0A0A0A0A0A0A0A0A0A0A0A0A0AFF
:103130000A0A0A0A1818181818181818180A0A0A71
:103140001818180A0A0A0A0A0A1918180A0A0A0A8A
:103150000A1818181818181818180A0A0A0A181835
:10316000181818181A1B0A0A0A0A0A0A0A1B1A1936
:103170001818191C1D0A0A0A0A0A1818181818180B
:103180001818180A0A0A1818180A0A0A0A0A18182F
:103190000A0A0A0A0A0A0A1E1C1818181F1D0A0A17
:1031A0000A1F181A0A0A0A0A0A0A1A181F0A0A0A19
:1031B0000A0A0A0A0A0A0A0A0A0A0A0A0A0A0A0A6F
:1031C0000A0A0907070706020200000202060707AB
:1031D00007090A0A0A0A0A0A0A0A0A0A0A0A0A0A53
:1031E0000A0A0A0A0A0A0A0A1818181818181818CF
:1031F000180A0A0A1818181D0A0A0A0A20181818A4
:103200000A0A0A0A0A1818181818181818180A0AA0
:103210000A0A1818181818181818210A0A0A0A0A87
:10322000221818181818181818190A0A0A0A18184B
:10323000181818181818180A0A0A181818220A0A4A
:103240000A0A18180A0A0A0A0A0A1A18181818186C
:103250001818190A0A1B1818210A0A0A0A2018182D
:103260001B0A0A0A0A0A0A0A0A0A0A0A0A0A0A0AAD
:103270000A0A0A0A0A0A09070707060202000002E8
:103280000206070707090A0A0A0A0A0A0A0A0A0AB4
:103290000A0A0A0A0A0A0A0A0A0A0A0A18180A0A72
:1032A0000A0A0A0A0A0A0A0A1818191F0A0A0A0A3E
:1032B0001A1918180A0A0A0A0A18180A0A0A0A0A17
:1032C0000A0A0A0A0A0A18180A0A0A2123181C0AF2
:1032D0000A0A0A22181824210A0A212418180A0A9C
:1032E0000A0A18180A0A0A0A0A0A0A0A0A0A181806
:1032F00023190A0A0A0A18180A0A0A0A0A241818B4
:10330000221B0A0A1D19180A0A0A22181F0A0A0A89
:103310000A1F18220A0A0A0A0A0A0A0A0A0A0A0AD2
:103320000A0A0A0A0A0A0A0A0A0A09070707060213
:10333000020000020206070707090A0A0A0A0A0A27
:103340000A0A0A0A0A0A0A0A0A0A0A0A0A0A0A0ADD
:1033500018180A0A0A0A0A0A0A0A0A0A181825186C
:103360001B0A0A0A182518180A0A0A0A0A18180A4B
:103370000A0A0A0A0A0A0A0A0A0A18180A0A0A0A91
:103380001B18180A0A0A1B18181D0A0A0A0A0A0A30
:103390000A1C0A0A0A0A18180A0A0A0A0A0A0A0A5F
:1033A0000A0A18181D181D0A0A0A18180A0A0A0A11
:1033B000211818210A0A0A0A0A0A1A0A0A0A0A1805
:1033C000181E0A0A1D18190A0A0A0A0A0A0A0A0A0B
:1033D0000A0A0A0A0A0A0A0A0A0A0A0A0A0A090751
:1033E00007070602020000020206070707090A0A89
:1033F0000A0A0A0A0A0A0A0A0A0A0A0A0A0A0A0A2D
:103400000A0A0A0A18180A0A0A0A0A0A0A0A0A0A00
:1034100018180A18240A0A1D180A18180A0A0A0A8B
:103420000A18180A0A0A0A0A0A0A0A0A0A0A1818C4
:103430000A0A0A0A0A18180A0A0A24181A0A0A0A98
:103440000A0A0A0A0A0A0A0A0A0A18180A0A0A0AC0
:103450000A0A0A0A0A0A18180A191F0A0A0A181870
:103460000A0A0A0A1A181A0A0A0A0A0A0A0A0A0A8E
:103470000A0A0A1D18190A0A18181E0A0A0A0A0A4C
:103480000A0A0A0A0A0A0A0A0A0A0A0A0A0A0A0A9C
:103490000A0A0907070706020200000202060707D8
:1034A00007090A0A0A0A0A0A0A0A0A0A0A0A0A0A80
:1034B0000A0A0A0A0A0A0A0A18180A0A0A0A0A0A50
:1034C0000A0A0A0A18180A1C180A0A231A0A1818DB
:1034D0000A0A0A0A0A18180A0A0A0A0A0A0A0A0A30
:1034E0000A0A18180A0A0A0A2018230A0A0A2318BC
:1034F000200A0A0A0A0A0A0A0A0A0A0A0A0A1818FA
:103500000A0A0A0A0A0A0A0A0A0A18180A221820C3
:103510000A0A18180A0A0A0A2318200A0A0A0A0AB2
:103520000A0A0A0A0A0A0A0A1F182222181F0A0A85
:103530000A0A0A0A0A0A0A0A0A0A0A0A0A0A0A0AEB
:103540000A0A0A0A0A0A0907070706020200000215
:103550000206070707090A0A0A0A0A0A0A0A0A0AE1
:103560000A0A0A0A0A0A0A0A0A0A0A0A1818181883
:1035700018181818180A0A0A18180A1E181E1B18F4
:103580001E0A18180A0A0A0A0A1818181818181809
:1035900018180A0A0A0A18180A0A0A1E23181D0A05
:1035A0000A0A18180A0A0A0A0A0A0A0A0A0A0A0A5F
:1035B0000A0A1818181818181818180A0A0A1818D1
:1035C0000A0A181A0A0A18180A0A0A0A18180A0A05
:1035D0000A0A0A0A0A0A0A0A0A0A0A0A201818180B
:1035E000181B0A0A0A0A0A0A0A0A0A0A0A0A0A0A1C
:1035F0000A0A0A0A0A0A0A0A0A0A09070707060241
:10360000020000020206070707090A0A0A0A0A0A54
:103610000A0A0A0A0A0A0A0A0A0A0A0A0A0A0A0A0A
:103620001818181818181818180A0A0A18180A0A60
:10363000191C24190A0A18180A0A0A0A0A1818185A
:103640001818181818180A0A0A0A18181818181832
:1036500018240A0A0A0A18180A0A0A0A0A1818185C
:1036600018180A0A0A0A1818181818181818180A20
:103670000A0A18180A0A1A181B0A18180A0A0A0A43
:1036800018180A0A0A0A0A0A0A0A0A0A0A0A0A0A7E
:103690000A1A1818220A0A0A0A0A0A0A0A0A0A0A46
:1036A0000A0A0A0A0A0A0A0A0A0A0A0A0A0A09077E
:1036B00007070602020000020206070707090A0AB6
:1036C0000A0A0A0A0A0A0A0A0A0A0A0A0A0A0A0A5A
:1036D0000A0A0A0A18180A0A0A0A0A0A0A0A0A0A2E
:1036E00018180A0A221818220A0A18180A0A0A0AB6
:1036F0000A18180A0A0A0A0A0A0A0A0A0A0A1818F2
:10370000181818181E0A0A0A0A0A18180A0A0A0AB1
:103710000A18181818180A0A0A0A18180A0A0A0AA7
:103720000A0A0A0A0A0A18180A0A1B18220A18188A
:103730000A0A0A0A18180A0A0A0A0A0A0A0A0A0ACD
:103740000A0A0A0A0A0A18180A0A0A0A0A0A0A0ABD
:103750000A0A0A0A0A0A0A0A0A0A0A0A0A0A0A0AC9
:103760000A0A090707070602020000020206070705
:1037700007090A0A0A0A0A0A0A0A0A0A0A0A0A0AAD
:103780000A0A0A0A0A0A0A0A18180A0A0A0A0A0A7D
:103790000A0A0A0A18180A0A1B18181B0A0A181813
:1037A0000A0A0A0A0A18180A0A0A0A0A0A0A0A0A5D
:1037B0000A0A18180A0A1A181F0A0A0A0A0A2318F3
:1037C000200A0A0A0A0A0A0A18180A0A0A0A18180B
:1037D0000A0A0A0A0A0A0A0A0A0A18180A0A0A1F18
:1037E000180A18180A0A0A0A2318200A0A0A0A0AD2
:1037F0000A0A0A0A0A0A0A0A0A0A18180A0A0A0A0D
:103800000A0A0A0A0A0A0A0A0A0A0A0A0A0A0A0A18
:103810000A0A0A0A0A0A0907070706020200000242
:103820000206070707090A0A0A0A0A0A0A0A0A0A0E
:103830000A0A0A0A0A0A0A0A0A0A0A0A18180A0ACC
:103840000A0A0A0A0A0A0A0A18180A0A0A1F1C0A95
:103850000A0A18180A0A0A0A0A18180A0A0A0A0A90
:103860000A0A0A0A0A0A18180A0A0A2318220A0A5D
:103870000A0A24181A0A0A0A0A0A0A0A18180A0A54
:103880000A0A18180A0A0A0A0A0A0A0A0A0A181860
:103890000A0A0A1E181D18180A0A0A0A1A181A0A09
:1038A0000A0A0A0A0A0A0A0A0A0A0A0A0A0A18185C
:1038B0000A0A0A0A0A0A0A0A0A0A0A0A0A0A0A0A68
:1038C0000A0A0A0A0A0A0A0A0A0A0907070706026E
:1038D000020000020206070707090A0A0A0A0A0A82
:1038E0000A0A0A0A0A0A0A0A0A0A0A0A0A0A0A0A38
:1038F00018180A0A0A0A0A0A0A0A0A0A18180A0AF0
:103900000A0A0A0A0A0A18180A0A0A0A0A18180ADF
:103910000A0A0A0A0A0A0A0A0A0A18180A0A0A21D4
:1039200018181E0A0A0A1B18181D0A0A0A0A0A0A87
:1039300018180A0A0A0A18180A0A0A0A0A0A0A0AAF
:103940000A0A18180A0A0A0A191918180A0A0A0A81
:10395000201818200A0A0A0A0A0A1A0A0A0A0A0A6F
:103960000A0A18180A0A0A0A0A0A0A0A0A0A0A0A9B
:103970000A0A0A0A0A0A0A0A0A0A0A0A0A0A0907AB
:1039800007070602020000020206070707090A0AE3
:103990000A0A0A0A0A0A0A0A0A0A0A0A0A0A0A0A87
:1039A0000A0A0A0A18180A0A0A0A0A0A0A0A0A0A5B
:1039B00018180A0A0A0A0A0A0A0A18180A0A0A0A2F
:1039C0000A18180A0A0A0A0A0A0A0A0A0A0A18181F
:1039D0000A0A0A0A1D18181B0A0A0A2418182421A0
:1039E0000A0A0A1E18180A0A0A0A18180A0A0A0AEB
:1039F0000A0A0A0A0A0A18180A0A0A0A1D181818CE
:103A00000A0A0A0A0A1C1818221B0A0A1D19180A8F
:103A10000A0A0A0A0A0A18180A0A0A0A0A0A0A0AEA
:103A20000A0A0A0A0A0A0A0A0A0A0A0A0A0A0A0AF6
:103A30000A0A090707070602020000020206070732
:103A400007090A0A0A0A0A0A0A0A0A0A0A0A0A0ADA
:103A50000A0A0A0A0A0A0A0A181818181818181856
:103A6000180A0A0A18180A0A0A0A0A0A0A0A181870
:103A70000A0A0A0A0A1818181818181818180A0A28
:103A80000A0A18180A0A0A0A0A1A18230A0A0A0A43
:103A90001A1818181818181818190A0A0A0A1818DB
:103AA000181818181818180A0A0A18180A0A0A0AF8
:103AB0000A1818180A0A0A0A0A0A1F1818181818E1
:103AC0001818190A0A0A0A0A0A0A18180A0A0A0A0F
:103AD0000A0A0A0A0A0A0A0A0A0A0A0A0A0A0A0A46
:103AE0000A0A0A0A0A0A0907070706020200000270
:103AF0000206070707090A0A0A0A0A0A0A0A0A0A3C
:103B00000A0A0A0A0A0A0A0A0A0A0A0A18181818DD
:103B100018181818180A0A0A18180A0A0A0A0A0AA3
:103B20000A0A18180A0A0A0A0A1818181818181877
:103B300018180A0A0A0A18180A0A0A0A0A0A231886
:103B40001A0A0A0A0A201A191818191A1E0A0A0A41
:103B50000A0A1818181818181818180A0A0A18182B
:103B60000A0A0A0A0A2218180A0A0A0A0A0A0A1D6E
:103B70001C1818181C1D0A0A0A0A0A0A0A0A181828
:103B80000A0A0A0A0A0A0A0A0A0A0A0A0A0A0A0A95
:103B90000A0A0A0A0A0A0A0A0A0A0907070706029B
:103BA000020000020206070707090A0A0A0A0A0AAF
:103BB0000A0A0A0A0A0A0A0A0A0A0A0A0A0A0A0A65
:103BC0000A0A0A0A0A0A0A0A0A0A0A0A0A0A0A0A55
:103BD0000A0A0A0A0A0A0A0A0A0A0A0A0A0A0A0A45
:103BE0000A0A0A0A0A0A0A0A0A0A0A0A0A0A0A0A35
:103BF0000A0A0A0A0A0A0A0A0A0A0A0A0A0A0A0A25
:103C00000A0A0A0A0A0A0A0A0A0A0A0A0A0A0A0A14
:103C10000A0A0A0A0A0A0A0A0A0A0A0A0A0A0A0A04
:103C20000A0A0A0A0A0A0A0A0A0A0A0A0A0A0A0AF4
:103C30000A0A0A0A0A0A0A0A0A0A0A0A0A0A0A0AE4
:103C40000A0A0A0A0A0A0A0A0A0A0A0A0A0A0907D8
:103C500007070602020000020206070707090A0A10
:103C60000A0A0A0A0A0A0A0A0A0A0A0A0A0A0A0AB4
:103C70000A0A0A0A0A0A0A0A0A0A0A0A0A0A0A0AA4
:103C80000A0A0A0A0A0A0A0A0A0A0A0A0A0A0A0A94
:103C90000A0A0A0A0A0A0A0A0A0A0A0A0A0A0A0A84
:103CA0000A0A0A0A0A0A0A0A0A0A0A0A0A0A0A0A74
:103CB0000A0A0A0A0A0A0A0A0A0A0A0A0A0A0A0A64
:103CC0000A0A0A0A0A0A0A0A0A0A0A0A0A0A0A0A54
:103CD0000A0A0A0A0A0A0A0A0A0A0A0A0A0A0A0A44
:103CE0000A0A0A0A0A0A0A0A0A0A0A0A0A0A0A0A34
:103CF0000A0A0A0A0A0A0A0A0A0A0A0A0A0A0A0A24
:103D00000A0A09070707060202000002020607075F
:103D100007090A0A0A0A0A0A0A0A0A0A0A0A0A0A07
:103D20000A0A0A0A0A0A0A0A0A0A0A0A0A0A0A0AF3
:103D30000A0A0A0A0A0A0A0A0A0A0A0A0A0A0A0AE3
:103D40000A0A0A0A0A0A0A0A0A0A0A0A0A0A0A0AD3
:103D50000A0A0A0A0A0A0A0A0A0A0A0A0A0A0A0AC3
:103D60000A0A0A0A0A0A0A0A0A0A0A0A0A0A0A0AB3
:103D70000A0A0A0A0A0A0A0A0A0A0A0A0A0A0A0AA3
:103D80000A0A0A0A0A0A0A0A0A0A0A0A0A0A0A0A93
:103D90000A0A0A0A0A0A0A0A0A0A0A0A0A0A0A0A83
:103DA0000A0A0A0A0A0A0A0A0A0A0A0A0A0A0A0A73
:103DB0000A0A0A0A0A0A090707070602020000029D
:103DC0000206070707090A0A0A0A0A0A0A0A0A0A69
:103DD0000A0A0A0A0A0A0A0A0A0A0A0A0A0A0A0A43
:103DE0000A0A0A0A0A0A0A0A0A0A0A0A0A0A0A0A33
:103DF0000A0A0A0A0A0A0A0A0A0A0A0A0A0A0A0A23
:103E00000A0A0A0A0A0A0A0A0A0A0A0A0A0A0A0A12
:103E10000A0A0A0A0A0A0A0A0A0A0A0A0A0A0A0A02
:103E20000A0A0A0A0A0A0A0A0A0A0A0A0A0A0A0AF2
:103E30000A0A0A0A0A0A0A0A0A0A0A0A0A0A0A0AE2
:103E40000A0A0A0A0A0A0A0A0A0A0A0A0A0A0A0AD2
:103E50000A0A0A0A0A0A0A0A0A0A0A0A0A0A0A0AC2
:103E60000A0A0A0A0A0A0A0A0A0A090707070602C8
:103E7000020000020206070707090A0A0A0A0A0ADC
:103E80000A0A0A0A0A0A0A0A0A0A0A0A0A0A0A0A92
:103E90000A0A0A0A0A0A0A0A0A0A0A0A0A0A0A0A82
:103EA0000A0A0A0A0A0A0A0A0A0A0A0A0A0A0A0A72
:103EB0000A0A0A0A0A0A0A0A0A0A0A0A0A0A0A0A62
:103EC0000A0A0A0A0A0A0A0A0A0A0A0A0A0A0A0A52
:103ED0000A0A0A0A0A0A0A0A0A0A0A0A0A0A0A0A42
:103EE0000A0A0A0A0A0A0A0A0A0A0A0A0A0A0A0A32
:103EF0000A0A0A0A0A0A0A0A0A0A0A0A0A0A0A0A22
:103F00000A0A0A0A0A0A0A0A0A0A0A0A0A0A0A0A11
:103F10000A0A0A0A0A0A0A0A0A0A0A0A0A0A090705
:103F200007070602020000020206070707090A0A3D
:103F30000A0A0A0A0A0A0A0A0A0A0A0A0A0A0A0AE1
:103F40000A0A0A0A0A0A0A0A0A0A0A0A0A0A0A0AD1
:103F50000A0A0A0A0A0A0A0A0A0A0A0A0A0A0A0AC1
:103F60000A0A0A0A0A0A0A0A0A0A0A0A0A0A0A0AB1
:103F70000A0A0A0A0A0A0A0A0A0A0A0A0A0A0A0AA1
:103F80000A0A0A0A0A0A0A0A0A0A0A0A0A0A0A0A91
:103F90000A0A0A0A0A0A0A0A0A0A0A0A0A0A0A0A81
:103FA0000A0A0A0A0A0A0A0A0A0A0A0A0A0A0A0A71
:103FB0000A0A0A0A0A0A0A0A0A0A0A0A0A0A0A0A61
:103FC0000A0A0A0A0A0A0A0A0A0A0A0A0A0A0A0A51
:103FD0000A0A09070707060202000002020607078D
:103FE00007090A0A0A0A0A0A0A0A0A0A0A0A0A0A35
:103FF0000A0A0A0A0A0A0A0A0A0A0A0A0A0A0A0A21
:104000000A0A0A0A0A0A0A0A0A0A0A0A0A0A0A0A10
:104010000A0A0A0A0A0A0A0A0A0A0A0A0A0A0A0A00
:104020000A0A0A0A0A0A0A0A0A0A0A0A0A0A0A0AF0
:104030000A0A0A0A0A0A0A0A0A0A0A0A0A0A0A0AE0
:104040000A0A0A0A0A0A0A0A0A0A0A0A0A0A0A0AD0
:104050000A0A0A0A0A0A0A0A0A0A0A0A0A0A0A0AC0
:104060000A0A0A0A0A0A0A0A0A0A0A0A0A0A0A0AB0
:104070000A0A0A0A0A0A0A0A0A0A0A0A0A0A0A0AA0
:104080000A0A0A0A0A0A09070707060202000002CA
:104090000206070707090A0A0A0A0A0A0A0A0A0A96
:1040A0000A0A0A0A0A0A0A0A0A0A0A0A0A0A0A0A70
:1040B0000A0A0A0A0A0A0A0A0A0A0A0A0A0A0A0A60
:1040C0000A0A0A0A0A0A0A0A0A0A0A0A0A0A0A0A50
:1040D0000A0A0A0A0A0A0A0A0A0A0A0A0A0A0A0A40
:1040E0000A0A0A0A0A0A0A0A0A0A0A0A0A0A0A0A30
:1040F0000A0A0A0A0A0A0A0A0A0A0A0A0A0A0A0A20
:104100000A0A0A0A0A0A0A0A0A0A0A0A0A0A0A0A0F
:104110000A0A0A0A0A0A0A0A0A0A0A0A0A0A0A0AFF
:104120000A0A0A0A0A0A0A0A0A0A0A0A0A0A0A0AEF
:104130000A0A0A0A0A0A0A0A0A0A090707070602F5
:10414000020000020206070707090A0A0A0A0A0A09
:104150000A0A0A0A0A0A0A0A0A0A0A0A0A0A0A0ABF
:104160000A0A0A0A0A0A0A0A0A0A0A0A0A0A0A0AAF
:104170000A0A0A0A0A0A0A0A0A0A0A0A0A0A0A0A9F
:104180000A0A0A0A0A0A0A0A0A0A0A0A0A0A0A0A8F
:104190000A0A0A0A0A0A0A0A0A0A0A0A0A0A0A0A7F
:1041A0000A0A0A0A0A0A0A0A0A0A0A0A0A0A0A0A6F
:1041B0000A0A0A0A0A0A0A0A0A0A0A0A0A0A0A0A5F
:1041C0000A0A0A0A0A0A0A0A0A0A0A0A0A0A0A0A4F
:1041D0000A0A0A0A0A0A0A0A0A0A0A0A0A0A0A0A3F
:1041E0000A0A0A0A0A0A0A0A0A0A0A0A0A0A090733
:1041F00007070602020000020206070707090A0A6B
:104200000A0A0A0A0A0A0A0A0A0A0A0A0A0A0A0A0E
:104210000A0A0A0A0A0A0A0A0A0A0A0A0A0A0A0AFE
:104220000A0A0A0A0A0A0A0A0A0A0A0A0A0A0A0AEE
:104230000A0A0A0A0A0A0A0A0A0A0A0A0A0A0A0ADE
:104240000A0A0A0A0A0A0A0A0A0A0A0A0A0A0A0ACE
:104250000A0A0A0A0A0A0A0A0A0A0A0A0A0A0A0ABE
:104260000A0A0A0A0A0A0A0A0A0A0A0A0A0A0A0AAE
:104270000A0A0A0A0A0A0A0A0A0A0A0A0A0A0A0A9E
:104280000A0A0A0A0A0A0A0A0A0A0A0A0A0A0A0A8E
:104290000A0A0A0A0A0A0A0A0A0A0A0A0A0A0A0A7E
:1042A0000A0A0907070706020200000202060707BA
:1042B00007090A0A0A0A0A0A0A0A0A0A0A0A0A0A62
:1042C0000A0A0A0A0A0A0A0A0A0A0A0A0A0A0A0A4E
:1042D0000A0A0A0A0A0A0A0A0A0A0A0A0A0A0A0A3E
:1042E0000A0A0A0A0A0A0A0A0A0A0A0A0A0A0A0A2E
:1042F0000A0A0A0A0A0A0A0A0A0A0A0A0A0A0A0A1E
:104300000A0A0A0A0A0A0A0A0A0A0A0A0A0A0A0A0D
:104310000A0A0A0A0A0A0A0A0A0A0A0A0A0A0A0AFD
:104320000A0A0A0A0A0A0A0A0A0A0A0A0A0A0A0AED
:104330000A0A0A0A0A0A0A0A0A0A0A0A0A0A0A0ADD
:104340000A0A0A0A0A0A0A0A0A0A0A0A0A0A0A0ACD
:104350000A0A0A0A0A0A09070707060202000002F7
:104360000206070707090A0A0A0A0A0A0A0A0A0AC3
:104370000A0A0A0A0A0A0A0A0A0A0A0A0A0A0A0A9D
:104380000A0A0A0A0A0A0A0A0A0A0A0A0A0A0A0A8D
:104390000A0A0A0A0A0A0A0A0A0A0A0A0A0A0A0A7D
:1043A0000A0A0A0A0A0A0A0A0A0A0A0A0A0A0A0A6D
:1043B0000A0A0A0A0A0A0A0A0A0A0A0A0A0A0A0A5D
:1043C0000A0A0A0A0A0A0A0A0A0A0A0A0A0A0A0A4D
:1043D0000A0A0A0A0A0A0A0A0A0A0A0A0A0A0A0A3D
:1043E0000A0A0A0A0A0A0A0A0A0A0A0A0A0A0A0A2D
:1043F0000A0A0A0A0A0A0A0A0A0A0A0A0A0A0A0A1D
:104400000A0A0A0A0A0A0A0A0A0A09070707060222
:10441000020000020206070707090A0A0A0A0A0A36
:104420000A0A0A0A0A0A0A0A0A0A0A0A0A0A0A0AEC
:104430000A0A0A0A0A0A0A0A0A0A0A0A0A0A0A0ADC
:104440000A0A0A0A0A0A0A0A0A0A0A0A0A0A0A0ACC
:104450000A0A0A0A0A0A0A0A0A0A0A0A0A0A0A0ABC
:104460000A0A0A0A0A0A0A0A0A0A0A0A0A0A0A0AAC
:104470000A0A0A0A0A0A0A0A0A0A0A0A0A0A0A0A9C
:104480000A0A0A0A0A0A0A0A0A0A0A0A0A0A0A0A8C
:104490000A0A0A0A0A0A0A0A0A0A0A0A0A0A0A0A7C
:1044A0000A0A0A0A0A0A0A0A0A0A0A0A0A0A0A0A6C
:1044B0000A0A0A0A0A0A0A0A0A0A0A0A0A0A090760
:1044C00007070602020000020206070707090A0A98
:1044D0000A0A0A0A0A0A0A0A0A0A0A0A0A0A0A0A3C
:1044E0000A0A0A0A0A0A0A0A0A0A0A0A0A0A0A0A2C
:1044F0000A0A0A0A0A0A0A0A0A0A0A0A0A0A0A0A1C
:104500000A0A0A0A0A0A0A0A0A0A0A0A0A0A0A0A0B
:104510000A0A0A0A0A0A0A0A0A0A0A0A0A0A0A0AFB
:104520000A0A0A0A0A0A0A0A0A0A0A0A0A0A0A0AEB
:104530000A0A0A0A0A0A0A0A0A0A0A0A0A0A0A0ADB
:104540000A0A0A0A0A0A0A0A0A0A0A0A0A0A0A0ACB
:104550000A0A0A0A0A0A0A0A0A0A0A0A0A0A0A0ABB
:104560000A0A0A0A0A0A0A0A0A0A0A0A0A0A0A0AAB
:104570000A0A0907070706020200000202060707E7
:1045800007090A0A0A0A0A0A0A0A0A0A0A0A0A0A8F
:104590000A0A0A0A0A0A0A0A0A0A0A0A0A0A0A0A7B
:1045A0000A0A0A0A0A0A0A0A0A0A0A0A0A0A0A0A6B
:1045B0000A0A0A0A0A0A0A0A0A0A0A0A0A0A0A0A5B
:1045C0000A0A0A0A0A0A0A0A0A0A0A0A0A0A0A0A4B
:1045D0000A0A0A0A0A0A0A0A0A0A0A0A0A0A0A0A3B
:1045E0000A0A0A0A0A0A0A0A0A0A0A0A0A0A0A0A2B
:1045F0000A0A0A0A0A0A0A0A0A0A0A0A0A0A0A0A1B
:104600000A0A0A0A0A0A0A0A0A0A0A0A0A0A0A0A0A
:104610000A0A0A0A0A0A0A0A0A0A0A0A0A0A0A0AFA
:104620000A0A0A0A0A0A0907070706020200000224
:104630000206070707090A0A0A0A0A0A0A0A0A0AF0
:104640000A0A0A0A0A0A0A0A0A0A0A0A0A0A0A0ACA
:104650000A0A0A0A0A0A0A0A0A0A0A0A0A0A0A0ABA
:104660000A0A0A0A0A0A0A0A0A0A0A0A0A0A0A0AAA
:104670000A0A0A0A0A0A0A0A0A0A0A0A0A0A0A0A9A
:104680000A0A0A0A0A0A0A0A0A0A0A0A0A0A0A0A8A
:104690000A0A0A0A0A0A0A0A0A0A0A0A0A0A0A0A7A
:1046A0000A0A0A0A0A0A0A0A0A0A0A0A0A0A0A0A6A
:1046B0000A0A0A0A0A0A0A0A0A0A0A0A0A0A0A0A5A
:1046C0000A0A0A0A0A0A0A0A0A0A0A0A0A0A0A0A4A
:1046D0000A0A0A0A0A0A0A0A0A0A09070707060250
:1046E000020000020206070707090A0A0A0A0A0A64
:1046F0000A0A0A0A0A0A0A0A0A0A0A0A0A0A0A0A1A
:104700000A0A0A0A0A0A0A0A0A0A0A0A0A0A0A0A09
:104710000A0A0A0A0A0A0A0A0A0A0A0A0A0A0A0AF9
:104720000A0A0A0A0A0A0A0A0A0A0A0A0A0A0A0AE9
:104730000A0A0A0A0A0A0A0A0A0A0A0A0A0A0A0AD9
:104740000A0A0A0A0A0A0A0A0A0A0A0A0A0A0A0AC9
:104750000A0A0A0A0A0A0A0A0A0A0A0A0A0A0A0AB9
:104760000A0A0A0A0A0A0A0A0A0A0A0A0A0A0A0AA9
:104770000A0A0A0A0A0A0A0A0A0A0A0A0A0A0A0A99
:104780000A0A0A0A0A0A0A0A0A0A0A0A0A0A09078D
:1047900007070602020000020206070707090A0AC5
:1047A0000A0A0A0A0A0A0A0A0A0A0A0A0A0A0A0A69
:1047B0000A0A0A0A0A0A0A0A0A0A0A0A0A0A0A0A59
:1047C0000A0A0A0A0A0A0A0A0A0A0A0A0A0A0A0A49
:1047D0000A0A0A0A0A0A0A0A0A0A0A0A0A0A0A0A39
:1047E0000A0A0A0A0A0A0A0A0A0A0A0A0A0A0A0A29
:1047F0000A0A0A0A0A0A0A0A0A0A0A0A0A0A0A0A19
:104800000A0A0A0A0A0A0A0A0A0A0A0A0A0A0A0A08
:104810000A0A0A0A0A0A0A0A0A0A0A0A0A0A0A0AF8
:104820000A0A0A0A0A0A0A0A0A0A0A0A0A0A0A0AE8
:104830000A0A0A0A0A0A0A0A0A0A0A0A0A0A0A0AD8
:104840000A0A090707070602020000020206070714
:1048500007090A0A0A0A0A0A0A0A0A0A0A0A0A0ABC
:104860000A0A0A0A0A0A0A0A0A0A0A0A0A0A0A0AA8
:104870000A0A0A0A0A0A0A0A0A0A0A0A0A0A0A0A98
:104880000A0A0A0A0A0A0A0A0A0A0A0A0A0A0A0A88
:104890000A0A0A0A0A0A0A0A0A0A0A0A0A0A0A0A78
:1048A0000A0A0A0A0A0A0A0A0A0A0A0A0A0A0A0A68
:1048B0000A0A0A0A0A0A0A0A0A0A0A0A0A0A0A0A58
:1048C0000A0A0A0A0A0A0A0A0A0A0A0A0A0A0A0A48
:1048D0000A0A0A0A0A0A0A0A0A0A0A0A0A0A0A0A38
:1048E0000A0A0A0A0A0A0A0A0A0A0A0A0A0A0A0A28
:1048F0000A0A0A0A0A0A0907070706020200000252
:104900000206070707090A0A0A0A0A0A0A0A0A0A1D
:104910000A0A0A0A0A0A0A0A0A0A0A0A0A0A0A0AF7
:104920000A0A0A0A0A0A0A0A0A0A0A0A0A0A0A0AE7
:104930000A0A0A0A0A0A0A0A0A0A0A0A0A0A0A0AD7
:104940000A0A0A0A0A0A0A0A0A0A0A0A0A0A0A0AC7
:104950000A0A0A0A0A0A0A0A0A0A0A0A0A0A0A0AB7
:104960000A0A0A0A0A0A0A0A0A0A0A0A0A0A0A0AA7
:104970000A0A0A0A0A0A0A0A0A0A0A0A0A0A0A0A97
:104980000A0A0A0A0A0A0A0A0A0A0A0A0A0A0A0A87
:104990000A0A0A0A0A0A0A0A0A0A0A0A0A0A0A0A77
:1049A0000A0A0A0A0A0A0A0A0A0A0907070706027D
:1049B000020000020206070707090A0A0A0A0A0A91
:1049C0000A0A0A0A0A0A0A0A0A0A0A0A0A0A0A0A47
:1049D0000A0A0A0A0A0A0A0A0A0A0A0A0A0A0A0A37
:1049E0000A0A0A0A0A0A0A0A0A0A0A0A0A0A0A0A27
:1049F0000A0A0A0A0A0A0A0A0A0A0A0A0A0A0A0A17
:104A00000A0A0A0A0A0A0A0A0A0A0A0A0A0A0A0A06
:104A10000A0A0A0A0A0A0A0A0A0A0A0A0A0A0A0AF6
:104A20000A0A0A0A0A0A0A0A0A0A0A0A0A0A0A0AE6
:104A30000A0A0A0A0A0A0A0A0A0A0A0A0A0A0A0AD6
:104A40000A0A0A0A0A0A0A0A0A0A0A0A0A0A0A0AC6
:104A50000A0A0A0A0A0A0A0A0A0A0A0A0A0A0907BA
:104A600007070602020000020206070707090A0AF2
:104A70000A0A0A0A0A0A0A0A0A0A0A0A0A0A0A0A96
:104A80000A0A0A0A0A0A0A0A0A0A0A0A0A0A0A0A86
:104A90000A0A0A0A0A0A0A0A0A0A0A0A0A0A0A0A76
:104AA0000A0A0A0A0A0A0A0A0A0A0A0A0A0A0A0A66
:104AB0000A0A0A0A0A0A0A0A0A0A0A0A0A0A0A0A56
:104AC0000A0A0A0A0A0A0A0A0A0A0A0A0A0A0A0A46
:104AD0000A0A0A0A0A0A0A0A0A0A0A0A0A0A0A0A36
:104AE0000A0A0A0A0A0A0A0A0A0A0A0A0A0A0A0A26
:104AF0000A0A0A0A0A0A0A0A0A0A0A0A0A0A0A0A16
:104B00000A0A0A0A0A0A0A0A0A0A0A0A0A0A0A0A05
:104B10000A0A090707070602020000020206070741
:104B200007090A0A0A0A0A0A0A0A0A0A0A0A0A0AE9
:104B30000A0A0A0A0A0A0A0A0A0A0A0A0A0A0A0AD5
:104B40000A0A0A0A0A0A0A0A0A0A0A0A0A0A0A0AC5
:104B50000A0A0A0A0A0A0A0A0A0A0A0A0A0A0A0AB5
:104B60000A0A0A0A0A0A0A0A0A0A0A0A0A0A0A0AA5
:104B70000A0A0A0A0A0A0A0A0A0A0A0A0A0A0A0A95
:104B80000A0A0A0A0A0A0A0A0A0A0A0A0A0A0A0A85
:104B90000A0A0A0A0A0A0A0A0A0A0A0A0A0A0A0A75
:104BA0000A0A0A0A0A0A0A0A0A0A0A0A0A0A0A0A65
:104BB0000A0A0A0A0A0A0A0A0A0A0A0A0A0A0A0A55
:104BC0000A0A0A0A0A0A090707070602020000027F
:104BD0000206070707090A0A0A0A0A0A0A0A0A0A4B
:104BE0000A0A0A0A0A0A0A0A0A0A0A0A0A0A0A0A25
:104BF0000A0A0A0A0A0A0A0A0A0A0A0A0A0A0A0A15
:104C00000A0A0A0A0A0A0A0A0A0A0A0A0A0A0A0A04
:104C10000A0A0A0A0A0A0A0A0A0A0A0A0A0A0A0AF4
:104C20000A0A0A0A0A0A0A0A0A0A0A0A0A0A0A0AE4
:104C30000A0A0A0A0A0A0A0A0A0A0A0A0A0A0A0AD4
:104C40000A0A0A0A0A0A0A0A0A0A0A0A0A0A0A0AC4
:104C50000A0A0A0A0A0A0A0A0A0A0A0A0A0A0A0AB4
:104C60000A0A0A0A0A0A0A0A0A0A0A0A0A0A0A0AA4
:104C70000A0A0A0A0A0A0A0A0A0A090707070602AA
:104C8000020000020206070707090A0A0A0A0A0ABE
:104C90000A0A0A0A0A0A0A0A0A0A0A0A0A0A0A0A74
:104CA0000A0A0A0A0A0A0A0A0A0A0A0A0A0A0A0A64
:104CB0000A0A0A0A0A0A0A0A0A0A0A0A0A0A0A0A54
:104CC0000A0A0A0A0A0A0A0A0A0A0A0A0A0A0A0A44
:104CD0000A0A0A0A0A0A0A0A0A0A0A0A0A0A0A0A34
:104CE0000A0A0A0A0A0A0A0A0A0A0A0A0A0A0A0A24
:104CF0000A0A0A0A0A0A0A0A0A0A0A0A0A0A0A0A14
:104D00000A0A0A0A0A0A0A0A0A0A0A0A0A0A0A0A03
:104D10000A0A0A0A0A0A0A0A0A0A0A0A0A0A0A0AF3
:104D20000A0A0A0A0A0A0A0A0A0A0A0A0A0A0907E7
:104D300007070602020000020206070707090A0A1F
:104D40000A0A0A0A0A0A0A0A0A0A0A0A0A0A0A0AC3
:104D50000A0A0A0A0A0A0A0A0A0A0A0A0A0A0A0AB3
:104D60000A0A0A0A0A0A0A0A0A0A0A0A0A0A0A0AA3
:104D70000A0A0A0A0A0A0A0A0A0A0A0A0A0A0A0A93
:104D80000A0A0A0A0A0A0A0A0A0A0A0A0A0A0A0A83
:104D90000A0A0A0A0A0A0A0A0A0A0A0A0A0A0A0A73
:104DA0000A0A0A0A0A0A0A0A0A0A0A0A0A0A0A0A63
:104DB0000A0A0A0A0A0A0A0A0A0A0A0A0A0A0A0A53
:104DC0000A0A0A0A0A0A0A0A0A0A0A0A0A0A0A0A43
:104DD0000A0A0A0A0A0A0A0A0A0A0A0A0A0A0A0A33
:104DE0000A0A09070707060202000002020607076F
:104DF00007090A0A0A0A0A0A0A0A0A0A0A0A0A0A17
:104E00000A0A0A0A0A0A0A0A0A0A0A0A0A0A0A0A02
:104E10000A0A0A0A0A0A0A0A0A0A0A0A0A0A0A0AF2
:104E20000A0A0A0A0A0A0A0A0A0A0A0A0A0A0A0AE2
:104E30000A0A0A0A0A0A0A0A0A0A0A0A0A0A0A0AD2
:104E40000A0A0A0A0A0A0A0A0A0A0A0A0A0A0A0AC2
:104E50000A0A0A0A0A0A0A0A0A0A0A0A0A0A0A0AB2
:104E60000A0A0A0A0A0A0A0A0A0A0A0A0A0A0A0AA2
:104E70000A0A0A0A0A0A0A0A0A0A0A0A0A0A0A0A92
:104E80000A0A0A0A0A0A0A0A0A0A0A0A0A0A0A0A82
:104E90000A0A0A0A0A0A09070707060202000002AC
:104EA0000206070707090A0A0A0A0A0A0A0A0A0A78
:104EB0000A0A0A0A0A0A0A0A0A0A0A0A0A0A0A0A52
:104EC0000A0A0A0A0A0A0A0A0A0A0A0A0A0A0A0A42
:104ED0000A0A0A0A0A0A0A0A0A0A0A0A0A0A0A0A32
:104EE0000A0A0A0A0A0A0A0A0A0A0A0A0A0A0A0A22
:104EF0000A0A0A0A0A0A0A0A0A0A0A0A0A0A0A0A12
:104F00000A0A0A0A0A0A0A0A0A0A0A0A0A0A0A0A01
:104F10000A0A0A0A0A0A0A0A0A0A0A0A0A0A0A0AF1
:104F20000A0A0A0A0A0A0A0A0A0A0A0A0A0A0A0AE1
:104F30000A0A0A0A0A0A0A0A0A0A0A0A0A0A0A0AD1
:104F40000A0A0A0A0A0A0A0A0A0A090707070602D7
:104F5000020000020206070707090A0A0A0A0A0AEB
:104F60000A0A0A0A0A0A0A0A0A0A0A0A0A0A0A0AA1
:104F70000A0A0A0A0A0A0A0A0A0A0A0A0A0A0A0A91
:104F80000A0A0A0A0A0A0A0A0A0A0A0A0A0A0A0A81
:104F90000A0A0A0A0A0A0A0A0A0A0A0A0A0A0A0A71
:104FA0000A0A0A0A0A0A0A0A0A0A0A0A0A0A0A0A61
:104FB0000A0A0A0A0A0A0A0A0A0A0A0A0A0A0A0A51
:104FC0000A0A0A0A0A0A0A0A0A0A0A0A0A0A0A0A41
:104FD0000A0A0A0A0A0A0A0A0A0A0A0A0A0A0A0A31
:104FE0000A0A0A0A0A0A0A0A0A0A0A0A0A0A0A0A21
:104FF0000A0A0A0A0A0A0A0A0A0A0A0A0A0A090715
:1050000007070602020000020206070707090A0A4C
:105010000A0A0A0A0A0A0A0A0A0A0A0A0A0A0A0AF0
:105020000A0A0A0A0A0A0A0A0A0A0A0A0A0A0A0AE0
:105030000A0A0A0A0A0A0A0A0A0A0A0A0A0A0A0AD0
:105040000A0A0A0A0A0A0A0A0A0A0A0A0A0A0A0AC0
:105050000A0A0A0A0A0A0A0A0A0A0A0A0A0A0A0AB0
:105060000A0A0A0A0A0A0A0A0A0A0A0A0A0A0A0AA0
:105070000A0A0A0A0A0A0A0A0A0A0A0A0A0A0A0A90
:105080000A0A0A0A0A0A0A0A0A0A0A0A0A0A0A0A80
:105090000A0A0A0A0A0A0A0A0A0A0A0A0A0A0A0A70
:1050A0000A0A0A0A0A0A0A0A0A0A0A0A0A0A0A0A60
:1050B0000A0A09070707060202000002020607079C
:1050C00007090A0A0A0A0A0A0A0A0A0A0A0A0A0A44
:1050D0000A0A0A0A0A0A0A0A0A0A0A0A0A0A0A0A30
:1050E0000A0A0A0A0A0A0A0A0A0A0A0A0A0A0A0A20
:1050F0000A0A0A0A0A0A0A0A0A0A0A0A0A0A0A0A10
:105100000A0A0A0A0A0A0A0A0A0A0A0A0A0A0A0AFF
:105110000A0A0A0A0A0A0A0A0A0A0A0A0A0A0A0AEF
:105120000A0A0A0A0A0A0A0A0A0A0A0A0A0A0A0ADF
:105130000A0A0A0A0A0A0A0A0A0A0A0A0A0A0A0ACF
:105140000A0A0A0A0A0A0A0A0A0A0A0A0A0A0A0ABF
:105150000A0A0A0A0A0A0A0A0A0A0A0A0A0A0A0AAF
:105160000A0A0A0A0A0A09070707060202000002D9
:105170000206070707090A0A0A0A0A0A0A0A0A0AA5
:105180000A0A0A0A0A0A0A0A0A0A0A0A0A0A0A0A7F
:105190000A0A0A0A0A0A0A0A0A0A0A0A0A0A0A0A6F
:1051A0000A0A0A0A0A0A0A0A0A0A0A0A0A0A0A0A5F
:1051B0000A0A0A0A0A0A0A0A0A0A0A0A0A0A0A0A4F
:1051C0000A0A0A0A0A0A0A0A0A0A0A0A0A0A0A0A3F
:1051D0000A0A0A0A0A0A0A0A0A0A0A0A0A0A0A0A2F
:1051E0000A0A0A0A0A0A0A0A0A0A0A0A0A0A0A0A1F
:1051F0000A0A0A0A0A0A0A0A0A0A0A0A0A0A0A0A0F
:105200000A0A0A0A0A0A0A0A0A0A0A0A0A0A0A0AFE
:105210000A0A0A0A0A0A0A0A0A0A09070707060204
:10522000020000020206070707090A0A0A0A0A0A18
:105230000A0A0A0A0A0A0A0A0A0A0A0A0A0A0A0ACE
:105240000A0A0A0A0A0A0A0A0A0A0A0A0A0A0A0ABE
:105250000A0A0A0A0A0A0A0A0A0A0A0A0A0A0A0AAE
:105260000A0A0A0A0A0A0A0A0A0A0A0A0A0A0A0A9E
:105270000A0A0A0A0A0A0A0A0A0A0A0A0A0A0A0A8E
:105280000A0A0A0A0A0A0A0A0A0A0A0A0A0A0A0A7E
:105290000A0A0A0A0A0A0A0A0A0A0A0A0A0A0A0A6E
:1052A0000A0A0A0A0A0A0A0A0A0A0A0A0A0A0A0A5E
:1052B0000A0A0A0A0A0A0A0A0A0A0A0A0A0A0A0A4E
:1052C0000A0A0A0A0A0A0A0A0A0A0A0A0A0A090742
:1052D00007070602020000020206070707090A0A7A
:1052E0000A0A0A0A0A0A0A0A0A0A0A0A0A0A0A0A1E
:1052F0000A0A0A0A0A0A0A0A0A0A0A0A0A0A0A0A0E
:105300000A0A0A0A0A0A0A0A0A0A0A0A0A0A0A0AFD
:105310000A0A0A0A0A0A0A0A0A0A0A0A0A0A0A0AED
:105320000A0A0A0A0A0A0A0A0A0A0A0A0A0A0A0ADD
:105330000A0A0A0A0A0A0A0A0A0A0A0A0A0A0A0ACD
:105340000A0A0A0A0A0A0A0A0A0A0A0A0A0A0A0ABD
:105350000A0A0A0A0A0A0A0A0A0A0A0A0A0A0A0AAD
:105360000A0A0A0A0A0A0A0A0A0A0A0A0A0A0A0A9D
:105370000A0A0A0A0A0A0A0A0A0A0A0A0A0A0A0A8D
:105380000A0A0907070706020200000202060707C9
:1053900007090A0A0A0A0A0A0A0A0A0A0A0A0A0A71
:1053A0000A0A0A0A0A0A0A0A0A0A0A0A0A0A0A0A5D
:1053B0000A0A0A0A0A0A0A0A0A0A0A0A0A0A0A0A4D
:1053C0000A0A0A0A0A0A0A0A0A0A0A0A0A0A0A0A3D
:1053D0000A0A0A0A0A0A0A0A0A0A0A0A0A0A0A0A2D
:1053E0000A0A0A0A0A0A0A0A0A0A0A0A0A0A0A0A1D
:1053F0000A0A0A0A0A0A0A0A0A0A0A0A0A0A0A0A0D
:105400000A0A0A0A0A0A0A0A0A0A0A0A0A0A0A0AFC
:105410000A0A0A0A0A0A0A0A0A0A0A0A0A0A0A0AEC
:105420000A0A0A0A0A0A0A0A0A0A0A0A0A0A0A0ADC
:105430000A0A0A0A0A0A0907070706020200000206
:105440000206070707090A0A0A0A0A0A0A0A0A0AD2
:105450000A0A0A0A0A0A0A0A0A0A0A0A0A0A0A0AAC
:105460000A0A0A0A0A0A0A0A0A0A0A0A0A0A0A0A9C
:105470000A0A0A0A0A0A0A0A0A0A0A0A0A0A0A0A8C
:105480000A0A0A0A0A0A0A0A0A0A0A0A0A0A0A0A7C
:105490000A0A0A0A0A0A0A0A0A0A0A0A0A0A0A0A6C
:1054A0000A0A0A0A0A0A0A0A0A0A0A0A0A0A0A0A5C
:1054B0000A0A0A0A0A0A0A0A0A0A0A0A0A0A0A0A4C
:1054C0000A0A0A0A0A0A0A0A0A0A0A0A0A0A0A0A3C
:1054D0000A0A0A0A0A0A0A0A0A0A0A0A0A0A0A0A2C
:1054E0000A0A0A0A0A0A0A0A0A0A09070707060232
:1054F000020000020206070707090A0A0A0A0A0A46
:105500000A0A0A0A0A0A0A0A0A0A0A0A0A0A0A0AFB
:105510000A0A0A0A0A0A0A0A0A0A0A0A0A0A0A0AEB
:105520000A0A0A0A0A0A0A0A0A0A0A0A0A0A0A0ADB
:105530000A0A0A0A0A0A0A0A0A0A0A0A0A0A0A0ACB
:105540000A0A0A0A0A0A0A0A0A0A0A0A0A0A0A0ABB
:105550000A0A0A0A0A0A0A0A0A0A0A0A0A0A0A0AAB
:105560000A0A0A0A0A0A0A0A0A0A0A0A0A0A0A0A9B
:105570000A0A0A0A0A0A0A0A0A0A0A0A0A0A0A0A8B
:105580000A0A0A0A0A0A0A0A0A0A0A0A0A0A0A0A7B
:105590000A0A0A0A0A0A0A0A0A0A0A0A0A0A09076F
:1055A00007070602020000020206070707090A0AA7
:1055B0000A0A0A0A0A0A0A0A0A0A0A0A0A0A0A0A4B
:1055C0000A0A0A0A0A0A0A0A0A0A0A0A0A0A0A0A3B
:1055D0000A0A0A0A0A0A0A0A0A0A0A0A0A0A0A0A2B
:1055E0000A0A0A0A0A0A0A0A0A0A0A0A0A0A0A0A1B
:1055F0000A0A0A0A0A0A0A0A0A0A0A0A0A0A0A0A0B
:105600000A0A0A0A0A0A0A0A0A0A0A0A0A0A0A0AFA
:105610000A0A0A0A0A0A0A0A0A0A0A0A0A0A0A0AEA
:105620000A0A0A0A0A0A0A0A0A0A0A0A0A0A0A0ADA
:105630000A0A0A0A0A0A0A0A0A0A0A0A0A0A0A0ACA
:105640000A0A0A0A0A0A0A0A0A0A0A0A0A0A0A0ABA
:105650000A0A0907070706020200000202060707F6
:1056600007090A0A0A0A0A0A0A0A0A0A0A0A0A0A9E
:105670000A0A0A0A0A0A0A0A0A0A0A0A0A0A0A0A8A
:105680000A0A0A0A0A0A0A0A0A0A0A0A0A0A0A0A7A
:105690000A0A0A0A0A0A0A0A0A0A0A0A0A0A0A0A6A
:1056A0000A0A0A0A0A0A0A0A0A0A0A0A0A0A0A0A5A
:1056B0000A0A0A0A0A0A0A0A0A0A0A0A0A0A0A0A4A
:1056C0000A0A0A0A0A0A0A0A0A0A0A0A0A0A0A0A3A
:1056D0000A0A0A0A0A0A0A0A0A0A0A0A0A0A0A0A2A
:1056E0000A0A0A0A0A0A0A0A0A0A0A0A0A0A0A0A1A
:1056F0000A0A0A0A0A0A0A0A0A0A0A0A0A0A0A0A0A
:105700000A0A0A0A0A0A0907070706020200000233
:105710000206070707090A0A0A0A0A0A0A0A0A0AFF
:105720000A0A0A0A0A0A0A0A0A0A0A0A0A0A0A0AD9
:105730000A0A0A0A0A0A0A0A0A0A0A0A0A0A0A0AC9
:105740000A0A0A0A0A0A0A0A0A0A0A0A0A0A0A0AB9
:105750000A0A0A0A0A0A0A0A0A0A0A0A0A0A0A0AA9
:105760000A0A0A0A0A0A0A0A0A0A0A0A0A0A0A0A99
:105770000A0A0A0A0A0A0A0A0A0A0A0A0A0A0A0A89
:105780000A0A0A0A0A0A0A0A0A0A0A0A0A0A0A0A79
:105790000A0A0A0A0A0A0A0A0A0A0A0A0A0A0A0A69
:1057A0000A0A0A0A0A0A0A0A0A0A0A0A0A0A0A0A59
:1057B0000A0A0A0A0A0A0A0A0A0A0907070706025F
:1057C000020000020206070707090A0A0A0A0A0A73
:1057D0000A0A0A0A0A0A0A0A0A0A0A0A0A0A0A0A29
:1057E0000A0A0A0A0A0A0A0A0A0A0A0A0A0A0A0A19
:1057F0000A0A0A0A0A0A0A0A0A0A0A0A0A0A0A0A09
:105800000A0A0A0A0A0A0A0A0A0A0A0A0A0A0A0AF8
:105810000A0A0A0A0A0A0A0A0A0A0A0A0A0A0A0AE8
:105820000A0A0A0A0A0A0A0A0A0A0A0A0A0A0A0AD8
:105830000A0A0A0A0A0A0A0A0A0A0A0A0A0A0A0AC8
:105840000A0A0A0A0A0A0A0A0A0A0A0A0A0A0A0AB8
:105850000A0A0A0A0A0A0A0A0A0A0A0A0A0A0A0AA8
:105860000A0A0A0A0A0A0A0A0A0A0A0A0A0A09079C
:1058700007070602020000020206070707090A0AD4
:105880000A0A0A0A0A0A0A0A0A0A0A0A0A0A0A0A78
:105890000A0A0A0A0A0A0A0A0A0A0A0A0A0A0A0A68
:1058A0000A0A0A0A0A0A0A0A0A0A0A0A0A0A0A0A58
:1058B0000A0A0A0A0A0A0A0A0A0A0A0A0A0A0A0A48
:1058C0000A0A0A0A0A0A0A0A0A0A0A0A0A0A0A0A38
:1058D0000A0A0A0A0A0A0A0A0A0A0A0A0A0A0A0A28
:1058E0000A0A0A0A0A0A0A0A0A0A0A0A0A0A0A0A18
:1058F0000A0A0A0A0A0A0A0A0A0A0A0A0A0A0A0A08
:105900000A0A0A0A0A0A0A0A0A0A0A0A0A0A0A0AF7
:105910000A0A0A0A0A0A0A0A0A0A0A0A0A0A0A0AE7
:105920000A0A090707070602020000020206070723
:1059300007090A0A0A0A0A0A0A0A0A0A0A0A0A0ACB
:105940000A0A0A0A0A0A0A0A0A0A0A0A0A0A0A0AB7
:105950000A0A0A0A0A0A0A0A0A0A0A0A0A0A0A0AA7
:105960000A0A0A0A0A0A0A0A0A0A0A0A0A0A0A0A97
:105970000A0A0A0A0A0A0A0A0A0A0A0A0A0A0A0A87
:105980000A0A0A0A0A0A0A0A0A0A0A0A0A0A0A0A77
:105990000A0A0A0A0A0A0A0A0A0A0A0A0A0A0A0A67
:1059A0000A0A0A0A0A0A0A0A0A0A0A0A0A0A0A0A57
:1059B0000A0A0A0A0A0A0A0A0A0A0A0A0A0A0A0A47
:1059C0000A0A0A0A0A0A0A0A0A0A0A0A0A0A0A0A37
:1059D0000A0A0A0A0A0A0907070706020200000261
:1059E0000206070707090A0A0A0A0A0A0A0A0A0A2D
:1059F0000A0A0A0A0A0A0A0A0A0A0A0A0A0A0A0A07
:105A00000A0A0A0A0A0A0A0A0A0A0A0A0A0A0A0AF6
:105A10000A0A0A0A0A0A0A0A0A0A0A0A0A0A0A0AE6
:105A20000A0A0A0A0A0A0A0A0A0A0A0A0A0A0A0AD6
:105A30000A0A0A0A0A0A0A0A0A0A0A0A0A0A0A0AC6
:105A40000A0A0A0A0A0A0A0A0A0A0A0A0A0A0A0AB6
:105A50000A0A0A0A0A0A0A0A0A0A0A0A0A0A0A0AA6
:105A60000A0A0A0A0A0A0A0A0A0A0A0A0A0A0A0A96
:105A70000A0A0A0A0A0A0A0A0A0A0A0A0A0A0A0A86
:105A80000A0A0A0A0A0A0A0A0A0A0907070706028C
:105A9000020000020206070707090A0A0A0A0A0AA0
:105AA0000A0A0A0A0A0A0A0A0A0A0A0A0A0A0A0A56
:105AB0000A0A0A0A0A0A0A0A0A0A0A0A0A0A0A0A46
:105AC0000A0A0A0A0A0A0A0A0A0A0A0A0A0A0A0A36
:105AD0000A0A0A0A0A0A0A0A0A0A0A0A0A0A0A0A26
